:020000040800F2
:10000000B1AA010000000000000000000000000094
:100010000000000000000000000000001E1F00089B
:1000200000000000000000000000000000000000D0
:1000300000000000000000000000000000000000C0
:1000400000000000000000000000000000000000B0
:1000500000000000000000000000000000000000A0
:100060000000000000000000000000000000000090
:100070000000000000000000000000000000000080
:100080000000000000000000000000000000000070
:100090000000000000000000000000000000000060
:1000A0000000000000000000000000000000000050
:1000B0000000000000000000000000000000000040
:1000C0000000000000000000000000000000000030
:1000D0000000000000000000000000000000000020
:1000E000701F000800000000000000000000000079
:1000F00000000000F63E00080000000000000000C4
:1001000000000000000000000000000000000000EF
:1001100000000000000000000000000000000000DF
:1001200000000000000000000000000000000000CF
:1001300000000000000000000000000000000000BF
:1001400000000000000000000000000000000000AF
:100150000000000000000000E63E0008737004305C
:10016000170500001305C5FF8545F605637BB5003F
:1001700089816378B500170500001305C5002E9529
:1001800002859302002073A0027D970200009382F3
:1001900062E773907230975200009382E27273901C
:1001A000C27E73E0C07E975200009382A269739072
:1001B0005230971100189381E1E51781001813015F
:1001C00061E417A50000130525E497050018938541
:1001D00065E3170600181306666D63FAC5008322EF
:1001E000050023A0550011059105E3EAC5FE17059A
:1001F00000181305A56B972500189385A52C637728
:10020000B500232005001105E36DB5FE73F0023241
:10021000179500001305C5B897800000E78060734C
:1002200097900000E78000C297200000E78080CC14
:100230000145814597100000E78080391783000051
:100240006700E37201A073E00232828073F0023231
:0402500082800000A8
:100280000000000000000000010203040607080946
:10029000307800000A50726F6772616D2068617378
:1002A00020657869746564207769746820636F6479
:1002B000653A00006E6D690A00000000747261709A
:1002C0000A00000020220008D8220008EE220008C0
:1002D000162300082C2300082022000842230008CF
:1002E00073303D252E33662C7A70303D25643B20DB
:1002F00073313D252E33662C7A70313D25640D0A0D
:100300000000000000008043000000000000F03FFB
:10031000FFFF7FFF000000008DEDB5A0F7C6B03EE7
:1003200018370008A0370008B63700085E38000804
:10033000DA380008623800088003000888030008E3
:100340009003000898030008A0030008AC0300080D
:10035000436F6E7632440000474150004643000030
:10036000536F66746D6178005265736861706500E3
:100370004457436F6E76324400000000414444000D
:10038000696E743800000000696E74313600000038
:1003900066703332000000006670313600000000E5
:1003A00066703820312E342E3300000066703820FD
:1003B000312E352E32000000000000000000503FBA
:1003C00000000000000024400000000080842E4156
:1003D00000000000000059403D3D3D3D3D3D3D3D9C
:1003E0003D3D3D3D3D3D3D3D3D3D3D3D3D3D3D3D3D
:1003F0003D3D3D3D3D3D3D3D206D6F64656C207351
:10040000746174203D3D3D3D3D3D3D3D3D3D3D3DA7
:100410003D3D3D3D3D3D3D3D3D3D3D3D3D3D3D3D0C
:100420003D3D3D3D0D0000006D646C5F747970656D
:100430003D25642028257329290D0A006F75745FF6
:100440006465713D2564200D0A000000696E7075B9
:10045000745F636E743D25642C206F7574707574C1
:100460005F636E743D25642C206C617965725F63F7
:100470006E743D25640D0A00696E707574202564E4
:1004800064696D733A202825642C2025642C20256E
:1004900064290D0A000000006F75747075742025C2
:1004A0006464696D733A202825642C2025642C200F
:1004B0002564290D0A0000006D61696E2062756671
:1004C0002073697A652025643B207375622062750C
:1004D000662073697A652025640D0A002F2F4E6F00
:1004E00074653A20504152414D206973206C617906
:1004F000657220706172616D2073697A652C206964
:100500006E636C75646520616C69676E20706164F0
:1005100064696E670D0A0D00496478094C6179655C
:1005200072092020202020202020206F75747368FD
:1005300061706509696E6F6674096F75746F6674B2
:1005400009504152414D094D454D4F5554204F5092
:10055000530D00002D2D2D09496E7075742020203B
:1005600020092533642C2533642C253364092D2080
:10057000202009302020202009302009256C64200B
:1005800009300D0A000000002323234C25643A2083
:1005900000000000626F6479206F6674203D2025A2
:1005A000640D0A00747970653D25642C2069735FC1
:1005B0006F75743D25642C2073697A653D25642C24
:1005C00020696E5F6F66743D25642C206F75745FC3
:1005D0006F66743D25642C20696E5F64696D733DA0
:1005E0005B25642C25642C25642C25645D2C206FF0
:1005F00075745F64696D733D5B25642C25642C25DF
:10060000642C25645D2C20696E5F733D252E336656
:100610002C20696E5F7A703D25642C206F75745FA5
:10062000733D252E33662C206F75745F7A703D25DF
:10063000640D0A00436F6E7632643A206B773D2575
:10064000642C206B683D25642C2073773D25642C39
:100650002073683D25642C2064773D25642C20643C
:10066000683D25642C206163743D25642C207061F5
:10067000643D5B25642C25642C25642C25645D2C4D
:1006800020646D756C3D25642C2077735F6F6674F4
:100690003D25642C20775F6F66743D25642C2062B5
:1006A0005F6F66743D25640D0A00000046433A20E2
:1006B00077735F6F66743D25642C20775F6F667477
:1006C0003D25642C20625F6F66743D25640D0A0031
:1006D0004457436F6E7632643A206B773D25642C25
:1006E000206B683D25642C2073773D25642C207396
:1006F000683D25642C2064773D25642C2064683D8A
:1007000025642C206163743D25642C207061643D58
:100710005B25642C25642C25642C25645D2C2064C9
:100720006D756C3D25642C2077735F6F66743D2575
:10073000642C20775F6F66743D25642C20625F6FA8
:1007400066743D25640D0A00253033640925732045
:100750002020202020092533642C2533642C2533C8
:100760006409256409256409256409256C64090068
:100770000D0A546F74616C20706172616D207E256A
:10078000642E2564204B422C204F5053207E25643C
:100790002E25303264204D4F50532C2062756666F2
:1007A00065722025642E2564204B420D0A0D0A0037
:1007B0005000000030000000400000003000000049
:1007C000300000005000000040000000500300080E
:1007D000580300085C030008600300086803000871
:1007E000700300087C030008B83A0008E83C0008E1
:1007F000E2380008683C0008E2380008043C0008C1
:1008000016390008803D0008723B0008103A0008C5
:10081000AE3B0008DA3B0008843D000816034700A1
:1008200069006700610044006500760069006300AC
:100830006500000038034700440033003200200008
:1008400055005300420020004300440043002000B4
:10085000410043004D00200069006E00200046006A
:10086000530020004D006F00640065000000000090
:100870002E0347004400330032005800580058004F
:100880002D0033002E0030002E0030002D003700E8
:100890007A003800780039007900650072000000A5
:1008A0001201000202000040E9288A010001010251
:1008B00003010000F89F00081C0800083408000825
:1008C00070080008000000000100000002000000A5
:1008D000030000000000000000007A4425643A2074
:1008E00025642E253033640D0A000000000000004E
:1008F0000000000000408F402323232050726564D5
:10090000696374206F75747075742069733A204E32
:10091000756D6265722025642C2070726F622030C4
:100920002E25640D0A0000006D6E697374206465E5
:100930006D6F0D002533642C000000000D000000D9
:1009400003001C001C0001009C04002003001C008C
:100950001C00010000000000746D206D6F64656C68
:10096000206C6F6164206572722025640A000000AB
:10097000746D5F72756E00003D3D3D25732075738B
:10098000652025642E25303364206D730D0A000028
:10099000746D2072756E206572726F723A202564D4
:1009A0000D0A00004D4149580001010001000600F8
:1009B000B80500000000000003001C001C0001003E
:1009C0000100010001000A0000000000000000001A
:1009D0000000000000000000000000000000000017
:1009E000000000000000000098000000000000006F
:1009F0001003000003001C001C00010003000D0098
:100A00000D0004008180803B80FFFFFF31E9843CC2
:100A100080FFFFFF0303020201010100000000004C
:100A20000000000000000000500000006000000016
:100A3000880000007D774A3C85AD873C2692C53B07
:100A4000B9C9483C2F5E5B4614C0B081C8320AD891
:100A50006F098127F6D67F7950F9162B2B5E60F34C
:100A600085997A0A816765190000000094FBFFFFF1
:100A700094FCFFFF94410100ABFAFFFF000000006F
:100A8000B0010000100300000000000003000D0092
:100A90000D000400030006000600080031E9843C54
:100AA00080FFFFFFA02A843C80FFFFFF03030202B8
:100AB0000101010000000000000000000000000033
:100AC000500000007000000090010000B6E08A3B7A
:100AD000E0A8363B503DC93B3E4F913B889E573B7B
:100AE00022A86C3B1F259F3BF240713BF10D283E35
:100AF000713EA8DAEFAD3D2C81B5CC0FF2DFDCDC26
:100B0000BF9FD1E9EAE9D0C3C199F25348E81B3449
:100B1000DDC3BAAF81DBACB1EB2B1309181C202F5E
:100B2000342056463D12D6DBD4FB003E5B3F485D89
:100B300033553F1081C0D3D693BFD5D7CAC9F21B56
:100B40000224F81BF9F7DFF807FF501CE6B8C71AB4
:100B5000D2CE0C0911E1F60E1F2F20FA2E2BC7F86A
:100B60000E4947192B11F73706E9B9B9E77F421447
:100B7000A1F429D1D507F9FC0C1B2F2F251E070244
:100B8000EBDD08A8B42B1DE41631161FF75C17E047
:100B90000A150825A4D91A19F9F7F98DA9CB81C02E
:100BA000EC1851C40C400C6524CDCDCD8781CDC24D
:100BB0009FE47552F808080C8E8A903A1C03773B24
:100BC000F1454B064841101A05FE00FFEAAC81AD25
:100BD000DAB6CB13EFEAD5C8B30FFDF4FAFE0D0475
:100BE0004B4C1C4B44093833B0D2178DAFE6DACBEF
:100BF000DD2E0F043C7F3D245332B0C7E1F12D13AD
:100C0000E74D24A1D8F1B183D0C5C0E2241FFFFF76
:100C1000DED1000057C8FEFF53CC0000F376FFFF83
:100C200099FCFFFFA01200005E1BFFFF0000000008
:100C300050050000000000007805000003000600D9
:100C4000060008000300020002001000A02A843CF5
:100C500080FFFFFF0509683D80FFFFFF03030202DD
:100C60000101010000000000000000000000000081
:100C7000500000009000000010050000E393AD3C20
:100C80006196683C71D9963CCAA14F3C7B9B6D3CF8
:100C90003594A43CC1F4A13C36E6833C93D4453C56
:100CA00016825F3C39F8563C8BF0AA3C6839663CAA
:100CB000581EA33CD81B863C38AD9A3CFBF849999A
:100CC000FBD682FF07DFFD164928FD0310100E1327
:100CD000FE1931230D81A501DEFB18F8CAF6E1F2F9
:100CE00014F9FF3D491F2DF804420513F11B032A97
:100CF000FB17DEEDFBE6F6C81605D53243101338B8
:100D000040E90529A4AE2DABA105CA814AD0BAE5B8
:100D10003DC8BC06EB2B32F912402ECC10E4045E29
:100D200058032F1A33D2F5F4112C08FDDD1711ECFE
:100D30004882F23EE422112AC80E2A0C53B04B0A14
:100D4000CB09F94247096A30E2FC02BB480AF4DCED
:100D50007FD69DFDB00712613411CE44C0FD0D1940
:100D600029CFFBCDE0EDAEDEE9F7221911E9191824
:100D7000D05217DA1FB4102336EF08DDC2E830D3A3
:100D800008230224991DED120311EEE5DCF2130A8B
:100D9000261AF202F8FCCB845CED1D99F2573EF363
:100DA0008AD6D6C116058100FD92D936E72517E807
:100DB0000519330D48ACDF15E9F5BDF7F0317223A5
:100DC0001665E2B5F40DEABCF33B5ADF9110E9F782
:100DD00020B2FBE9FC0FB63B04041B2595C6D5FAEF
:100DE000A190DEB98B39E8C109F9051D1B0F39FF48
:100DF000D546F7297A6AFAF7083DAF07564102D778
:100E0000ECE701E0D1B9C194D4EBCADDD6B2E1E19F
:100E10000CFC381101EADD2381E410FF00201AC721
:100E2000F43BF9E581E712E0EB070E37F636F6ED15
:100E30002709380C0DE914EEDE161E2C2222E3FBE6
:100E4000144508F2C7F8F9F413DBDE1021DD0406BF
:100E5000220F1A2318EFEC00DED9C4CF0BF0FE37B7
:100E6000F2EEF44C48ECBD27FBC4EA0929000C2A39
:100E70002EDCF803D1B3160481D309F7D3FAF5D3E6
:100E8000E0E0C6FF19F62F01F70A2602F52C110B38
:100E900022FFFC06DDFD16D9EB4F1CE0E1E3D51582
:100EA000E8F664293DC32349E1CEDBBCDED9E3D3B8
:100EB000B00C222A2C080D0C7FF61BD317E011F67C
:100EC000DCFD08CAF628F3E3B731092014A818F2AC
:100ED000E3253BD71AC5B8E2F20BF81EB9FA3FD1A9
:100EE000F4CD24DE03411108FDE6DDFC22140F07DA
:100EF0000E2501D8022BF994DC1FFAFA7C71EF0958
:100F00004D9FB981E820E6494316D04937DF00F20A
:100F10009A159A8FD8D346D0DFC8D7F02412FF1283
:100F2000F94215F01013AEE433A6201EB2DF24DA26
:100F30000671622A0A2C34CC27EB3A62F0141F5651
:100F40002CCC4E3648FC901C0DCA1D5816441AEB8A
:100F5000880F21F9FB1E5A2EA70DFB10BFD13BE7CE
:100F6000112B3CDDFB08E2A281D201C3E629AEDEF3
:100F700033F1057229E00705C1CFB7F2EC1851FF34
:100F8000E23D350CB30632A5AD223DEB7F4592899B
:100F90000CC720123B00521D08B0A3EEDC0F1CFA58
:100FA0002B06FA0304E1D216F8DEE93922303F3687
:100FB000141F1ECB3E2BD4A78CF1BDD0E03221FFF5
:100FC000466BF5FD5135C8CEA706EFBAF8541E1D85
:100FD0003727D6D281F6F9E0EAC4FDFAE44C29FBC2
:100FE0002AD6C5C60C31243CFC0E0294F0EA4037E8
:100FF000221FCEC3E2F02A24F6EDDDD5E82A4D59B2
:101000002E16111C152D18C5FAFD1FF8D32BEBE772
:10101000F6C9DC34F8D7EED71C0F1D1F9B9FD803F1
:10102000303AB402CE1A0843E5F8DF28BFD8A992B7
:10103000E7BE18E96E6097022AFBCF070BE8DC05D4
:101040002D433C344726099799F2B7159EB4D68BA9
:101050000BBABAEAD1027F38F13029334C30521D35
:10106000015332BFC9E808D7C9E0F9C82ACFE23E28
:101070000817FD05C9EEF3D3051AFF160310E23D6C
:1010800020EEFFF90AEF090A02F9FDDADE2A090863
:1010900007D002D37FDFEE2C27FFE0F6F70FE9F24F
:1010A00022FBF5FF3D5314EB15FEE406DC2711E3AC
:1010B0001B9DD807ECCDB0EEF8050D2C24F8DFFE13
:1010C000EC1B69E604DB043B531B3D200700C8DB37
:1010D00047D7E0D8C7DEDCE619DCF7EF1433F32D91
:1010E000EEACE19CFBD5FEFF142D81FCF00306CC99
:1010F000E31EDFA2EFEDEB21063C3C7F43F7160138
:10110000372C4DC4F9F5102BFB02D10C08992BFBA1
:10111000B4FCE3D5D437CC0429FA511618190301CD
:101120000AE744BF01F4F7F7E52A6F361F4C039333
:10113000DBD8E03A18F8080E4607E3CEE85800007E
:10114000382700000CE2FFFFDC6AFFFF7E85FEFF10
:1011500076170000EB5AFFFF46CBFFFFB68000007A
:1011600031AFFFFFDB360000F6EFFFFF0C82FFFF21
:1011700082E2FFFF5512FFFFF1BF000001000000F7
:1011800030000000780500000000000003000200AD
:101190000200100001000100010010000509683D77
:1011A00080FFFFFF211AB73C80FFFFFF0200000015
:1011B0003001000000000000A8050000010001004F
:1011C000010010000100010001000A00211AB73CD3
:1011D00080FFFFFFFD061B3E2A00000040000000CC
:1011E000680000000801000000000000E9E2AF3CD8
:1011F00000000000000000000000000000000000EF
:1012000000000000000000000000000000000000DE
:10121000000000002AE229BF0BDD09FA42B1F9C241
:1012200046D20FB534EAB317DBFBBC0F24DFCEF98F
:101230001CE0BB38B7E2280C049339E3F5EE3CC65A
:1012400037F6B641CABAD7EDC3FD3A0DD21D07A98C
:10125000E906532525D71A31F00E8119EFC00A2D62
:10126000B533FBE6DC1D0383E248D928233134E69D
:10127000EBDBDDDCE74EC0CF253C98B5ECCC36C3CC
:101280003C08F2E30DF74144901F2207CB0BB8094D
:10129000FEC8BF0BBDF506D24DCC07DF1FFBF92FF3
:1012A000E6A22600F036FCE9F3EB0EB0BD3FC61C0B
:1012B000CA4D02F4BCB2FFFF1AA5FFFFC5C3FFFF72
:1012C0001CAAFFFF44C4FFFF64CCFFFFFB9CFFFF91
:1012D00062C3FFFF97BDFFFFE6C9FFFF03000100E8
:1012E00030000000A805000000000000010001001F
:1012F00001000A000100010001000A00FD061B3E7A
:101300002A0000000000803B80FFFFFF000000007B
:101310000000E0FE422EE63F0000E0FE422EE6BF67
:10132000763C7935EF39EA3D763C7935EF39EABDDF
:10133000000000000000E03F000000000000E0BFEF
:10134000F25900004259000048590000425900007B
:10135000E45900004259000048590000F2590000C9
:10136000F2590000E45900004859000028590000D3
:1013700028590000285900004C5900009C5E0000CC
:101380009C5E0000B45E0000965E0000965E000069
:10139000425F0000B45E0000965E0000425F000005
:1013A000965E0000B45E0000945E0000945E000053
:1013B000945E0000425F00006C6B0000966B0000C2
:1013C000BE6B0000966B00000A6C0000966B00007C
:1013D000BE6B00006C6B00006C6B00000A6C0000C0
:1013E000BE6B00007E6B00007E6B00007E6B000019
:1013F000C26B0000EE6D0000EE6D0000066E000096
:10140000EA6D0000EA6D00004C6E0000066E000000
:10141000EA6D00004C6E0000EA6D0000066E0000F0
:10142000E86D0000E86D0000E86D00004C6E000003
:10143000000102020303030304040404040404047B
:10144000050505050505050505050505050505054C
:10145000060606060606060606060606060606062C
:10146000060606060606060606060606060606061C
:1014700007070707070707070707070707070707FC
:1014800007070707070707070707070707070707EC
:1014900007070707070707070707070707070707DC
:1014A00007070707070707070707070707070707CC
:1014B00008080808080808080808080808080808AC
:1014C000080808080808080808080808080808089C
:1014D000080808080808080808080808080808088C
:1014E000080808080808080808080808080808087C
:1014F000080808080808080808080808080808086C
:10150000080808080808080808080808080808085B
:10151000080808080808080808080808080808084B
:10152000080808080808080808080808080808083B
:1015300000000000000000000000000000000000AB
:10154000000000000000000000000000000000009B
:10155000000000000000000000000000000000008B
:10156000000000000000000000000000000000007B
:10157000000000000000000000000000000000006B
:10158000000000000000000000000000000000005B
:10159000232D302B20000000686C4C0065666745E9
:1015A000464700003031323334353637383941421E
:1015B000434445460000000030313233343536377D
:1015C000383961626364656600000000197186DE67
:1015D000A2DCA6DACAD8CED6D2D4D6D2DAD0DECE23
:1015E00097300000E780605F054597300000E78096
:1015F000608197300000E780C06363030510971097
:101600000000E780409C371400081305848D130503
:10161000050597800000E78060BE0145370900207E
:1016200097700000E780005481441304848D1309EF
:10163000C949371A0008F14A6D4BB71B00089309D6
:101640000031B307990083C5070013054A939780BB
:101650000000E78040A6014597700000E7808050B9
:10166000B3E75403639867011385CB939780000019
:10167000E780C0B80145850497700000E780804E80
:10168000E39134FD314693058406480897800000B5
:10169000E780608431469305440708109780000076
:1016A000E7806083B71400081385449A97200000F0
:1016B000E78000C9B75600089385449A18109386AE
:1016C00026740146281897100000E7802093AA8509
:1016D0001DCD1305040897800000E780C09D0145DB
:1016E00097700000E78000487D55F6506654D65448
:1016F0004659B659265A965A065BF64B09618280BE
:101700001305400697200000E780C06FDDB5141078
:1017100050088945281897100000E7808098971096
:101720000000E780408A70100C102A892818971052
:101730000000E78080A3AA8497100000E780A088BB
:101740003305254197700000E780C0F60C40976094
:101750000000E780A0622A8997700000E78080E39C
:101760002AC697700000E780E0E8AA854A8597704E
:101770000000E78000B00C4097700000E780E08C2C
:1017800097700000E78000E13246B7150008AA868E
:10179000938505971305040A97800000E780A091C0
:1017A000014597700000E780E03B97100000E7805C
:1017B000808195E0681097400000E78000F90145BE
:1017C00097700000E780003A281897100000E78023
:1017D000208C014519BFA6851305840B9780000056
:1017E000E780608DE9BFB707014083A60740134734
:1017F000F5FFF98E23A0D74083A64740F98E23A298
:10180000D74083A68740F98E23A4D74083A6C7403C
:10181000F98E23A6D74081CD85466380D5028547C2
:101820006300F6040DC289476309F604828083A62B
:101830000740C98E23A0D740DDB783A64740C98E95
:1018400023A2D740E9BFB707014083A68740558D43
:1018500023A4A74083A6C740758F23A6E7408280B4
:10186000B707014083A68740758F23A4E74003A7ED
:10187000C740598D23A6A7408280B707014003A720
:101880008740498FDDB737070140832707405D8DCB
:101890002320A7408280B707014023AAA740828067
:1018A000B7170240135765003E9714438547B39717
:1018B000A700D58F1CC38280B7160240DC423707D1
:1018C00040FF7D17F98F5D8DC8C282807971B705A1
:1018D000000822D441462A8493850528080806D6A4
:1018E00097700000E780205FB707030493871720F5
:1018F00002C03EC202C43EC6371702405C4389465E
:1019000089838D8B6397D70E5C439396F70063D6DC
:1019100006065C579396F70063DC06045C5758573D
:1019200091832183BD8B3D8B938617000907C547A3
:101930006313F7005147B7177A0093870720B3D78F
:10194000D702B387E7023717024058573D8B050788
:1019500033D7E702B7160240DC42D442C98313965C
:101960002600BD8B6350060293E7070185070DA093
:10197000B7177A0093870720F9B7B7173D00138789
:101980000790C9BFBD46E383D7FE8907638DD7049F
:10199000B387E702B7160240D842101011833D8B7F
:1019A0003297034507FFD84233D5A70021831D8B0B
:1019B0003297034607FED84214102D831D8B3697AD
:1019C0008546034787FE630CD40005CC894763072F
:1019D000F4028D473355E5006303F4000145B2502E
:1019E0002254456182809947B307F7020583BA976D
:1019F00055B7B7177A009387072069BF3355C500DD
:101A0000F9BF3E85E9BFF367043082801703000009
:101A10006700833A011106CE22CC32C42A842EC636
:101A200097000000E7802038B2452285970000002B
:101A3000E780E03A224622856244F240B2850561A1
:101A4000170300006700233FB71702409843B7060B
:101A5000FFE0B1061367170098C3D843758FD8C34A
:101A60009843B706F7FEFD16758F98C39843B706DF
:101A7000FCFFFD16758F98C3D843B70601DFFD162E
:101A8000758FD8C323A607029843B706F7EAFD1659
:101A9000758F98C33707FF0098C794434167D98E65
:101AA00094C39307F7FF3717024014431396E600D9
:101AB00063440600FD17F5FBB717024098439316E1
:101AC000E70063C3060001A0D843B706C4DFFD16D4
:101AD000D8C3D843D8C3D84313670740D8C3D84323
:101AE000758FD8C3D843B7062920558FD8C3D85788
:101AF000BD76758FD8D7D857C166938616F1558FA6
:101B0000D8D79843B7060004558F98C3B71702403B
:101B1000984393164700E3DD06FE9843B70600108E
:101B2000558F98C3B7170240984393162700E3DDFB
:101B300006FE9843B7060001558F98C3B7170240B9
:101B4000984393166700E3DD06FED843719BD8C324
:101B5000D84313672700D8C3371702405C43A18BD3
:101B6000F5DF8280371702405C4337160020854638
:101B700089838D8B130606816386D70081C78946CA
:101B80006388D700B7177A00938707201CC282802A
:101B90005C439396F70063DB06065C579396F70069
:101BA00063D106065C5758579183BD8B218393867A
:101BB00017009377F70013872700C5476313F700D3
:101BC0005147B7177A0093870720B3D7D702B38757
:101BD000E7023717024058573D8B0507B3D7E70296
:101BE000B7160240D842D4424983939526003D8BD4
:101BF00063D305021367070105073307F70218C20D
:101C00008280B7177A0093870720E1B7B7173D00A6
:101C100093870790F1B7BD46E300D7FE0907E31E9F
:101C2000D7FC19473387E7028583BA9785B779715F
:101C30004ECEAE89B705000809469385052922D402
:101C400026D24AD052CC56CA06D62A8971449770F9
:101C50000000E780406D3D4AA54AF154B3178A0061
:101C6000B3F73701B3D7870093F7F70F63ECFA02A6
:101C70009387070393F7F70F05469305F1004A850D
:101C80007114A307F10097700000E780C069E317A3
:101C900094FCB250225492540259F249624AD24AF8
:101CA0004561828093877703F1B7371700201307C8
:101CB00047811C43B72600209386064C3E95636BF4
:101CC000D500B77600209386060063E5A60008C31A
:101CD0003E858280FD57EDBF7D558280411106C64D
:101CE00097700000E780A063B240133515003305FC
:101CF000A040410182807971B705000822D47D4659
:101D00002A84938545290A8506D697700000E780C6
:101D1000801C79468A85094597700000E780A0609D
:101D2000A285094597000000E780A0F0B7050008EC
:101D3000054693858544094597700000E780A05EBD
:101D400001A07D15133525008280011106CE2EC617
:101D500097700000E780A05C01C9B2458967014522
:101D6000DCC1F240056182807D55E5BF7D558280F2
:101D7000B70700D1D8438843CC43E39DE5FE82807A
:101D8000B70700D223800700A38507001205B71705
:101D900000D23E9563E3A700828023A00700C1071D
:101DA000D5BFB71700D285070A053E9585472300A2
:101DB000F5008280370700D283470700060579893E
:101DC00093F7170E5D8D2300A7008280B70700D21E
:101DD00003C5070005813D898280411122C426C2C6
:101DE00006C62A84AE8497000000E78060FE914713
:101DF000114763E3A7002A87371500D20A040D05AF
:101E00002295834705009376F70FA145B397E70026
:101E100093F7F70F958DB394B400B3D7E740C58F10
:101E200093F7F70F2300F500B2402244924441019A
:101E30008280011122CC2EC606CE2A849700000093
:101E4000E78000F98D47814563E9A702371700D283
:101E50000A040D07229783470700B245A146338540
:101E6000A6409205B3D7A74093F5F50FB397A70007
:101E7000CD8F93F7F70F2300F700F24062442E85D1
:101E800005618280F327503093F707FC93E7370012
:101E9000739057308280B70500084111154693852D
:101EA000452B054506C697700000E780C0470545ED
:101EB00097000000E78060E441119347F5FF22C4DA
:101EC00006C6139747012A8409E797000000E780B8
:101ED000C0FCB705000815469385C52B05459770CE
:101EE0000000E7804044228597000000E780E0E0A2
:101EF000411106C697000000E78040B51305700544
:101F000097000000E78000E897000000E780C0F736
:101F1000B240410117E3FFFF67002333828039712C
:101F20003ECCB717002083A7878A06DE16DC1ADAB4
:101F30001ED82AD62ED432D236D03ACE42CA46C87D
:101F400072C676C47AC27EC08297F250E252525371
:101F5000C2533255A255125682567247E247524832
:101F6000C248324EA24E124F824F21617300203080
:101F700039713ECCB717002083A7C78A06DE16DC6E
:101F80001ADA1ED82AD62ED432D236D03ACE42CA47
:101F900046C872C676C47AC27EC08297F250E252B8
:101FA0005253C2533255A255125682567247E247D7
:101FB0005248C248324EA24E124F824F21617300E6
:101FC0002030411106C6732800C0B7470F00938721
:101FD0000724B3851703B716002003A606818146A0
:101FE0003337F80233850703BA9597400000E7803E
:101FF00020ECB24041018280411122C42A848841F0
:10200000B747495806C626C24AC09387D714631DEE
:10201000F50683C74500214591EF0CC054C03A89AD
:10202000AE8421EEC84597700000E78040E808C400
:1020300001E91145B24022449244024941018280A3
:1020400085472318F40088480DCD97700000E7807D
:1020500000E648C479DD938704045CC823190400B2
:102060003146938544014A8597700000E780A0E6D9
:102070001C4401452324F90075BF10C42318040033
:10208000D9B723260400C1BF09456DB783570501A1
:1020900091C70845177300006700A3E28280797139
:1020A0008357460026D28354260006D622D4B38412
:1020B000F402835766004AD04ECE52CC56CA5AC854
:1020C0005EC6B384F40285476388F5008947638A56
:1020D000F5081C469CC619A81C413689328483AA7F
:1020E000070603AB47068149639E9900B25022540C
:1020F00092540259F249624AD24A424BB24B0145CC
:10210000456182801C4413972900D685BA9788437D
:10211000032A890097600000E78040C6AA8B5A8591
:1021200097600000E780004DAA855E8597600000FB
:10213000E780A0934E9A97600000E780A0452300B7
:10214000AA00850955B70C469846BE9583C505007B
:102150003E978507938505F82300B700E39597FE22
:1021600071B78147E5BF317126DB56D3AA84B28AA5
:10217000E80831464ED752D55AD15ECF06DF22DD70
:102180004AD962CD66CB6AC96EC797700000E780F6
:1021900080D49C40370A00082399040093870704E1
:1021A000DCC88149194B130A4A2CB14B984083D79C
:1021B00024010357A70063E2E7020145FA506A547D
:1021C000DA544A59BA592A5A9A5A0A5BFA4B6A4C53
:1021D000DA4C4A4DBA4D29618280C04803AC840074
:1021E00081CF1C44214693050401E297E808BED242
:1021F00097700000E78020CE5C44130984012146DB
:10220000E297CA85C818BEDE97700000E780A0CCB0
:10221000835704006363FB1C8A07D2979C43828721
:102220004C547444304483483403034824038347A4
:102230001403034704032ED80C54A29622962ED6DC
:102240004C50E8082ED40C502ED26C40A2952ED0C3
:102250004C5C2ECE8345B4032ECC8345A4032ECAFA
:10226000834594032EC8834584032EC68355640397
:102270002EC4834554032EC2834544032EC0CC187C
:1022800097000000E780E01515F9DC4081C7A285C2
:10229000268582978357240095C7B38C79032146FE
:1022A000CA85D69C668597700000E780C0C29C40B6
:1022B00083AD840003C757005C4461E3BE9D23A443
:1022C000BC0185095840DC48BA97DCC883D7240193
:1022D00085072399F400D9BD5C541854545010500C
:1022E000CC18E80897100000E780209B71BF1858B1
:1022F000145C50584C5483288402032844021C5018
:1023000022972EC0A2962296CC18E80897100000BB
:10231000E78000A695BF5C54185454501050CC1858
:10232000E80897100000E78000BCB9BF5C5418545F
:1023300054501050CC18E80897100000E780C0D126
:10234000A1B7930504012146A81097700000E7800B
:1023500080B81C585054832884023E9C0328840370
:102360005C5858501450AC1032C0E808D018E2D86D
:1023700097100000E78080CE01BF0357C401035CC3
:10238000A401014D330CEC020357E401330CEC02C1
:102390003309FC006E991D09137989FF63158D01BE
:1023A00023A42C0139BFB386A701EE96038506004E
:1023B000545413172D004A97158DBAC6BEC49760A2
:1023C0000000E78020230C54050D97600000E78093
:1023D000C0C73647A64708C3D1B71545C5B3717105
:1023E00052CDAE4E2A8A1E45EEDE4A5FB36ED5014F
:1023F0000E45FA5D4ECFB3EEAE0056CB5AC906D7A6
:1024000022D526D34AD15EC762C566C36AC10545D7
:102410005A5BEA59BE4AB3EEBE01E31CAF061D4546
:102420006312EB4D154F0D45634E3F4B330DF702D5
:10243000654F25456348AF4B63196D01B33ED0012D
:10244000B3EEDA010D45639F0E483ECCB707000896
:1024500003A54730BA842E8903576A0083DB6500E1
:102460008045FE4546D836C63ACE42D632C497603D
:102470000000E780A09097600000E780A011B706F9
:10248000000803A7C63083A68630B71800203ACAD2
:1024900072472AC281479388082436C863CB7703E2
:1024A0008547630CFD08268F63D30400014FB30FEB
:1024B000E70337150020814E814881471305C58DFC
:1024C000E24663DBDE3C93962800AA96BE85014671
:1024D00045AE939627003ED0CE47B38E16013AD232
:1024E000BE96884276CE97600000E780C0262A8696
:1024F000AE864245D24597400000E780E0302A8C06
:102500005E45AE8C97600000E780E024AE862A86A8
:10251000E685628597400000E780002F9750000015
:10252000E780403CF24E8257B716002023A0AE0051
:10253000850712579388062495B7931717003ECC4A
:102540008E57014B814A93F7F70F854B0D4C930C37
:1025500000603EC88357290063D5FA38814481431F
:1025600085A803534A0083576A00B24233036303CA
:10257000014E2693B307F30203238A003E93B71755
:102580000020938F0724A247338FE700BE889D4722
:10259000B38767403ECE83576900FD176345FE064B
:1025A000B24713152E00330E8E40338FA700B71796
:1025B0000020938707243E959D47B38F674083563D
:1025C0006900B307C40163CFD71AB2578503BE941D
:1025D00083574900E3C7F3F8C257850A3E9B9DBF66
:1025E00063D3070081479246090E0904B387F602B8
:1025F000C246A102A10FC187B697A30FF4FEE2471E
:10260000BE983E9F49BF937E87FFC6857A869A868D
:102610000145814772483698637AD80D038D0600CC
:1026200003880500830D0600A1063308A803A10551
:102630002106B38DAD03C297038D96FF038895FFE6
:102640006E95830D96FF3308A803B38DAD03C29733
:10265000038DA6FF0388A5FF6E95830DA6FF3308A3
:10266000A803338DAD033E988387B5FFB30DAD004E
:102670000385B6FF030DB6FFB387A7023305AD028E
:10268000C2970388C5FF330DB5010385C6FF830DCF
:10269000C6FF3308A8023385AD02C297830DD6FF6B
:1026A0000388D5FF6A95038DD6FF3308A803338DC1
:1026B000AD033E988387E5FFB30DAD000385E6FFCC
:1026C000030DE6FFB387A7023305AD023E9883876B
:1026D000F5FF330DB5010385F6FFB387A702C29757
:1026E0000308F6FF3305A8026A952DB763F6EE02DC
:1026F000B306D30103860600B386D801838606009D
:10270000B386C602B697B306DF0183860600850E40
:10271000B386C6023695D9BFBED4AAD683A6020018
:10272000B69783A60F00A207B3C7D70263887905BF
:102730006399890163D30700814763D4FC00930741
:1027400000609246B387F602C246C187B69723005F
:10275000F40083A64200B657B69783A64F00A2079F
:10276000B3C7D702E38E79E7E39F89E763D3070016
:102770008147E3DAFCE693070060B5B5E3D307FCD5
:102780008147C1B7137887FFC6851A868147B3860C
:10279000CF0063EC06036368E80A83260F00B69750
:1027A0001441A207B3C7D702638C790B638E890BE0
:1027B00092460504BA98110F1105B387F6028E569A
:1027C000C187B697A30FF4FEDDBB83860500830E99
:1027D0000600838245002106B38EDE02830696FF43
:1027E000A105F697838E95FFB38ED6038306A6FFC9
:1027F000F697838EA5FFB38ED6038306B6FFBE9EE3
:102800008387B5FFB387F6028306C6FFB3825602FD
:10281000F6978306D6FF838ED5FF338DF200B38EF5
:10282000D6038387E5FF8306E6FFB387F602B3820C
:10283000AE018306F6FFB38E57008387F5FFB3879B
:10284000F602F697A9B7B30603013386080183861B
:102850000600030606000508B386C602B69725BF24
:10286000E3D807F48147A9B763D307008147E3D1D1
:10287000FCF4930700602DBF8CC20506BA95910643
:10288000E34C96FE83564A00FE97FA98858EB386EF
:10289000E602850EB6972DB163930A003A8B330C8E
:1028A000AB0363800A065E83B387AB033EDC93977A
:1028B00024003EDAB71700209387C78D3EDEB71796
:1028C00000203718002093870724330BB0416ED2C5
:1028D00002C813080894BEC08357290042476345C5
:1028E000F7020145BA502A549A540A59FA496A4AD9
:1028F000DA4A4A4BBA4B2A4C9A4C0A4DF65D4D6166
:10290000828062DC5A8365B712579357FB4102CE2F
:10291000F98F3ED49E4722573ED0B30BF040A257CA
:10292000B387F402C297BEC4D257B387E702725787
:10293000BA97BEC29357FB01BEC6E247DA97BEC83C
:10294000835749007247634CF700C24742578507D7
:102950003EC8C2573E9B9257998F3ED2B5BFB647ED
:1029600013D7FB01835D2A003E97C647835C4A006C
:10297000B3A7FD003E97B3877401B3A7FC003E9751
:10298000B3876C03B386770183576A00B387F60277
:1029900083268A00B69721EFC285BE866347670407
:1029A000A547630DFC0C324F864FA24E0145C288ED
:1029B00085428D43930C006015A4F2581315260030
:1029C000469508413695830805003385C500050600
:1029D00023001501E343A6FF0507BA8663840A00B6
:1029E000B3465703BE96EA9555BF0146E5B7025771
:1029F00093D8FB41B38D6D41B3F8E8006247635350
:102A0000B701BA8DB38C7C4163D39401A68CEE459B
:102A100062564285C6CE9ACCBECA97600000E78057
:102A2000E04CD647A6456643F6482A88BE8601474D
:102A3000E35867F6AE8E164E225525A0131F2600CA
:102A4000729F032F0F00369F830F0F00338FCE002E
:102A500005062300FF01E34396FF52560505A69E97
:102A6000329E634BB5010507BA8663840A00B346FC
:102A70005703BE96EA956DBF4686F1BFE3850AF21D
:102A80002247B2480645A2864286054E8D4E130F58
:102A9000006083556900B387864063CCB700F24776
:102AA0003257368485073ECE8257BA9B998F3ED0E7
:102AB00041BD8302060083070700830F17008305CB
:102AC0002700B383F20283071600B38FF70383074F
:102AD0002600B385B702B382F30183073600830370
:102AE0003700B38FB200B3837702830247008307B6
:102AF0004600B3825702B3857F0083075600830FD9
:102B00005700B3835500B38FF7038305670083072E
:102B10006600B385B702B382F30183077600B38FF3
:102B2000B20083057700B385B70283078600FE9560
:102B3000830F8700B387F703BE9583A70800BE9570
:102B40001C41A205B3C5F5026382C9036384D9039E
:102B5000924785066A96250791081105B385B70245
:102B60008E57C185BE95A38FB6FE25B7E3D205FE6D
:102B70008145F9BF63D305008145E35BBFFC930545
:102B80000060F9B79D4693758CFFF687468601472E
:102B9000B38D1641B386CD0063E9B60463E2850DBB
:102BA00083270F003E979317870003A70F0033C7B3
:102BB000E7026384590C6386790C63830A00EA9800
:102BC0009246B307A400110F0505910FE29E3387CB
:102BD000E6028E56418736972380E70083576900C7
:102BE000B306A400E340F5FA5DBD83860700030E3B
:102BF0000600A1072106330EDE02830696FF7297B8
:102C0000038E97FF338EC6038306A6FF7297038E4B
:102C1000A7FF338EC6038306B6FF3A9E0387B7FF2E
:102C20003387E6028306C6FF7297038EC7FF338E93
:102C3000C6038306D6FF3A9E0387D7FF3387E60293
:102C40008306E6FF7297038EE7FF338EC603830683
:102C5000F6FF3A9E0387F7FF3387E60272971DBFA0
:102C6000B387B800B386BE0083870700838606005B
:102C70008505B387D7023E9715B7E35007F40147A0
:102C80002DBF635307000147E3D9ECF2130700603F
:102C90002DB71D4581B9797122D426D24AD04ECEA6
:102CA00052CC56CA5EC606D65AC862C4AA84AE8B37
:102CB0003289B68ABA893E8A014497F0FFFFE780DD
:102CC000803003D66B00634FC400B250225492543C
:102CD0000259F249624AD24A424BB24B224C014558
:102CE0004561828083D644009C4403D7240033830B
:102CF000C602A2978145014563C7E50603AB8B0079
:102D0000229B05043307D7023345E50233055541BD
:102D100097600000E780008ECA8597500000E7802A
:102D2000C032CE8597500000E78040052A8C52853E
:102D300097600000E780008CAA85628597500000AC
:102D4000E780A0D297600000E780C0842300AB003A
:102D50008DBF038E08000508B2987295E34BD8FE2C
:102D60009A97850551BFBE880148CDBF397126DAD3
:102D7000AA8422DC4AD84ED652D456D25AD05ECE3D
:102D800062CC66CA06DE6AC86EC6AE8B3289368BE6
:102D9000BA893E8AC68A97F0FFFFE780C02203AC5B
:102DA00084009D4C0144B38C8C4183D76B006342FB
:102DB000F402F2506254D2544259B259225A925AF1
:102DC000025BF24B624CD24C424DB24D0145216147
:102DD000828003D66400E2878145B30686021378B9
:102DE00086FFCA9636873385FC0063640507636DEA
:102DF000C80C93172400DA97884303AD8B002E95F7
:102E000097500000E780007FD28597500000E78050
:102E1000C02383A50900229D050497500000E78088
:102E2000C022D68597500000E78040F5AA8D064560
:102E300097500000E780007CAA856E8597500000BF
:102E4000E780A0C297500000E780C0742300AD0067
:102E5000A9BF83080700038507002107A1073305E1
:102E60001503830897FF2E95838597FFB385150378
:102E70008308A7FFAA950385A7FF330515038308D9
:102E8000B7FF2E958385B7FFB38515038308C7FF6A
:102E9000AA950385C7FF330515038308D7FF2E9531
:102EA0008385D7FFB38515038308E7FFAA950385BC
:102EB000E7FF330515038308F7FF2E958385F7FF9A
:102EC000B3851503AA9505B7B3070C01338706012F
:102ED00083870700030707000508B387E702BE954D
:102EE00039B7397122DC26DA4ED6AA8452D456D2AA
:102EF0005AD05ECE62CC66CA6AC86EC6AE8ABE8C36
:102F000006DE4AD8328BB68B3A8C97F0FFFFE7800B
:102F1000800BB707000883AD840083A98A0003DA19
:102F2000640003AD0731014463454405B707000859
:102F300003AB873183ABC7314E84014A13090000CC
:102F400083D764006345FA06014483D76400634E67
:102F5000F40AF2506254D2544259B259225A925A47
:102F6000025BF24B624CD24C424DB24D01452161A5
:102F70008280B3878D000385070033057541975024
:102F80000000E7802067DA8597500000E780E00BBB
:102F900093172400CE9788C3EA852A8997500000AA
:102FA000E78020036353A0004A8D0504B5BF0840A5
:102FB000EA85050A97500000E780A02B08C09750CB
:102FC0000000E780407997300000E7800097976025
:102FD0000000E7802082AA85AA8D4A8597500000CC
:102FE000E780A0A82A896E8597500000E780A07628
:102FF0005A86DE8697400000E780A02E975000009A
:10300000E780407F08C0110425BF93172400CE97A6
:103010008843CA8503AA8A0097500000E78000D63B
:10302000E28597500000E78060D52A8B668597502F
:103030000000E780205CAA855A8597500000E78051
:10304000C0A2229A97500000E780C0542300AA0033
:103050000504E5BD014582801D71D2C43E8A9C45B0
:10306000A2CC035425003ECC835745006AD8032DDB
:1030700085003304F40283576500528586CEA6CAC4
:10308000CAC8CEC63689BA89D6C23304F402C28A07
:10309000DAC05EDE62DC6ED6468C832D860066DA90
:1030A00097500000E780206B2AC84A852ECA9750A7
:1030B0000000E780406A4248D2482A863705000867
:1030C0004E87AE8656C01305052E97600000E78038
:1030D00080FE014597600000E780C0A8624B9377AF
:1030E000C4FFEA84EE8BEA976396F4029374C4FFFC
:1030F00063C6841CF6406644D6444649B649264A0F
:10310000964A064BF25B625CD25C425DB25D014561
:103110002561828006553ECE910497500000E780DD
:10312000604DAA8C0385C4FF110B910B330535410B
:1031300097500000E780004CCA8597500000E78058
:10314000C0F02AC80305CBFF330555419750000056
:10315000E780404AD28597500000E78000EF424761
:10316000AA853A8597500000E7802090E285975025
:103170000000E780A0C0E68597500000E780E08E61
:1031800097500000E7800041238EABFE0385D4FFFB
:103190003305354197500000E780C045CA859750F8
:1031A0000000E78080EA2AC80305DBFF33055541AC
:1031B00097500000E7800044D28597500000E780D8
:1031C000C0E84247AA853A8597500000E780E08929
:1031D000E28597500000E78060BAE68597500000CE
:1031E000E780A08897500000E780C03AA38EABFE2E
:1031F0000385E4FF3305354197500000E780803FA9
:10320000CA8597500000E78040E42AC80305EBFF19
:103210003305554197500000E780C03DD285975057
:103220000000E78080E24247AA853A859750000077
:10323000E780A083E28597500000E78020B4E68510
:1032400097500000E780608297500000E78080344C
:10325000238FABFE0385F4FF330535419750000003
:10326000E7804039CA8597500000E78000DE2AC811
:103270000305FBFF3305554197500000E780803779
:10328000D28597500000E78040DC4247AA853A8506
:1032900097400000E780607DE28597500000E7805E
:1032A000E0ADE68597400000E780207C9750000065
:1032B000E780402EA38FABFEF2473DB5B3079D00DC
:1032C00003850700338B9D0033053541975000007F
:1032D000E7804032CA8597500000E78000D7E24778
:1032E000AA8BA6970385070085043305554197509F
:1032F0000000E7802030D28597500000E780E0D4BE
:10330000AA855E8597400000E7802076E285975089
:103310000000E780A0A6AA8B065597500000E78022
:10332000602DAA855E8597400000E7800074975065
:103330000000E78020262300AB005DBB75714AC109
:103340002A89370500081305853D06C722C5D2DC4A
:10335000D6DADAD8DED6E2D4E6D2EAD026C3CEDE9A
:1033600097600000E78080E983454900B7070008BF
:103370009387873313972500BA9790433705000842
:103380001305854297600000E780E0D2834559002D
:10339000370500081305C54397600000E780A0D1FA
:1033A0008356A90003568900835569003705000834
:1033B0001305C54497600000E780E0CF0357A901DB
:1033C0008356890103566901835549013705000871
:1033D0001305854797600000E780E0CD0357290279
:1033E000835609020356E9018355C90137050008D0
:1033F0001305854997600000E780E0CB03260901AB
:103400008325C900370500081305854B9760000028
:10341000E78060CA370500081305C54D97600000B6
:10342000E780C0DD3705000813058551976000006F
:10343000E780C0DC83556901035689018356A901E1
:10344000370500083387C50213054555370C0008BA
:10345000B70C0008370D000813040904814B014B19
:10346000014AB70A00083307D702130C0C7B938C70
:103470000C32130DCD7C97600000E780C0C38357EA
:10348000A90063C1FB16B7460F0093860624334498
:10349000DB02832709010325C900B70A000893044A
:1034A00000403E951359A50097400000E7808056E4
:1034B00003A68A3B83A6CA3BB709000897400000D1
:1034C000E780609D2A8C4A85AE8C97400000E7809B
:1034D00060542A86AE866285E68597400000E780C4
:1034E00040E003A6093C83A6493C97400000E780E2
:1034F000809A97400000E7802045AAC65A859740E9
:103500000000E780204AB707000803A6873C83A68F
:10351000C73CB3449A0297300000E780E02E2A8B24
:103520002285AE8B97400000E780C04E2A86AE868B
:103530005A85DE8597400000E780A0DAB7070008CB
:1035400003A6073D83A6473D97400000E780A0946F
:1035500097400000E780403FAAC452859740000092
:10356000E780404403A68A3B83A6CA3B97400000FD
:10357000E78060922A8AAE8A268597400000E7801D
:1035800060492A86AE865285D68597400000E7803E
:1035900040D503A6093C83A6493C97400000E7803C
:1035A000808F97400000E780203A364826472A86D9
:1035B00037050008CA87A286A68513050577976098
:1035C0000000E78040AF0145BA402A449A440A49C6
:1035D000F659665AD65A465BB65B265C965C065D23
:1035E000496182809305700413858A5897600000B2
:1035F000E78060AC014597500000E780A056370592
:103600000008B30524411305455997600000E78081
:1036100080AA014597500000E780C05401459750AB
:103620000000E78020549305C00413858A589760F2
:103630000000E78040A8014597500000E7808052D5
:103640004C5483582401035804015C4418445440EA
:1036500003562400835404002ED80854C6CEC2CC8E
:10366000BECABAC8B6C6B2C497500000E780A00E62
:103670002AD42ED64C502ED0085097500000E78008
:10368000800D2ACC2ECE8355E401D64746472ECA5C
:103690008355C401F64866482EC88355A401B64632
:1036A000370500082EC6835584011305455A2EC4DC
:1036B000835564012EC2835544012EC02646A6853B
:1036C00097600000E780209F014597500000E78049
:1036D0006049014597500000E780C0480357040047
:1036E000994763EEE71E8357C4018359A4018354AD
:1036F000E401B389F9025C403E9A93172700B306B0
:10370000FC009442330ADA409546B389990263E695
:10371000E61CE6979C438287834404038347140393
:1037200093058005B384340313858A58B384F40267
:1037300083576401B384F40297600000E780A09788
:10374000014597500000E780E0417C4437050008C0
:10375000130545633ECE3C443ECC7C403ECA5C5C97
:103760003EC88347B4033EC68347A4033EC4834791
:1037700094033EC2834784033EC0835864030348D6
:103780005403834744030347340383462403034617
:1037900014038345040397600000E780C09181A86B
:1037A0008357440183542401B384F4028357640192
:1037B000B384F402B9A083576401930510061385FE
:1037C0008A58B384970297600000E780C08E014555
:1037D00097500000E7800039145C50580C583705AA
:1037E00000081305C56A97600000E780C08C01459A
:1037F00097500000E7800037014597500000E780B0
:103800006036835704004EC258408A073306FD00D5
:10381000E2979C43104237050008B307F7403EC0CB
:103820008357E4018328C400032884000357C4019C
:103830008356A401DE851305857497600000E78038
:10384000808737050008A6851305C52F97600000FF
:10385000E78060865C40269B850B3E940DB19947BE
:1038600081BF83440403834714039305C006B384D4
:10387000340313858A58B384F40297600000E7800C
:103880008083014597500000E780C02D7C443705B8
:1038900000081305056D3ECE3C443ECC7C403ECA3C
:1038A0005C5C3EC88347B4033EC68347A4033EC462
:1038B000834794033EC2834784033EC08358640316
:1038C00003485403834744030347340383462403D4
:1038D00003461403834504037DBD81441DB715458C
:1038E000E5B1054582800325454183470500231046
:1038F000F600828003258541834725002310F600CA
:103900008280832705428A05AE9788438347050056
:103910002310F6008280411122C426C206C683C746
:1039200005002A84AE848D8B8DCF05476385E70C17
:103930000327C40D054561C783C7740083C66400AF
:10394000A207D58FCDCF6371F70C8357C40C014507
:103950006367F70A3375F70255E98547A306F44212
:1039600079A883C7250083C535000947A205DD8DE9
:1039700093D7850093F5F50F638CE704636BF7022B
:103980000547E397E7FA1306C50D97000000E780A7
:10399000C0F52328A40C83C7740003C76400A207E2
:1039A000D98F13070004E395E7F8A147232EF40C01
:1039B00041B70D476387E7023D47E39BE7F683275F
:1039C000C54103C727002328F50C231EE50C8DB73E
:1039D0001306C50D97000000E78000F22328A40C11
:1039E00081BF9547E3E6B7F41306C50D97000000C5
:1039F000E78060F1E5B783270543DC478297B24053
:103A00002244924441018280232EF40C0145C5BF1B
:103A100041114AC006C622C426C283C725003719F1
:103A200000201309098B2300F900854663EDF60099
:103A30000347650C89442A841377F70F63079700BF
:103A40000D466309C702854439A8814489CF83277D
:103A500005438545DC438297834709002302F40C24
:103A60008D472303F40CB240224426850249924438
:103A70004101828091EF8327054381459C478297CE
:103A8000834709002303940C81442302F40CE1BF13
:103A90008347450C8144E388D7FC8327054385454C
:103AA0009C4782978345090083270443228523028C
:103AB000B40CDC43829745BF83C6550003C745005D
:103AC00003C60500A206D98E0D8A8545AA8713F77D
:103AD000F60F6303B60411C689456302B6060545B1
:103AE00082800347650C89466388E6000347650CBE
:103AF0008D4605456394E60483C6274103C7074105
:103B000089C6B336E00093E6260037170020130776
:103B1000478B2300D70029A88346650C0D46054531
:103B2000631ED600636CE500371700201307478B30
:103B300023A8E70C094723AEE70C01458280034622
:103B4000650C8D450545E39BC5FEE206E18663DB1A
:103B50000600F1461377F7073307D7023E978346EF
:103B6000A70C65B7F1463307D7023E978346E72691
:103B700069BF0347650C8946AA871377F70F630768
:103B8000D7008D466301D702054582800347450C67
:103B9000054565FF1387470C23A8E70C054723AEAF
:103BA000E70C014582800347450C79DFE5B7834781
:103BB000650C0D476311F70203C74500854763EAAB
:103BC000E70003270543232EF50C8147050723282B
:103BD000E50C3E8582808547EDBF8347650C0D4728
:103BE0006310F70203C74500854763E9E7008327B1
:103BF000054303C72500A380E70081473E858280F7
:103C00008547EDBF03C7550083C645002207558F82
:103C100001CB054582800545B240224441018280A6
:103C200003C7750083C665002207558F7DF34111D8
:103C300022C406C683C525000347650C8D4693F54F
:103C4000F507A302B50C2A84E387E6FC9710000071
:103C5000E78020578347540C91C789472303F40C0E
:103C600001455DBF8547DDBF411106C622C483C73C
:103C700005002A878D8B8DCF894605446391D70631
:103C80008347650C0D470544631BF70483C7350064
:103C900003C725000144A207D98FB1E383C54500BE
:103CA00093F7F5078DCF97100000E780A04905A88E
:103CB0008347650C89466388F6008347650C8D460B
:103CC0000544639EF60083C7350083C62500014482
:103CD000A207D58F85466394D7002309F740228534
:103CE000B240224441018280411126C206C622C44C
:103CF0004AC003C70500AA840D8B29C78946054918
:103D00006319D7060347650C8D4605496393E6069C
:103D100003C7350083C6250001492207558F31EBC3
:103D200003C745009376F707A9C62E84BA85971076
:103D30000000E780204583A70443A2852685DC4751
:103D4000829705A80347650C89466388E600034708
:103D5000650C8D460549639EE60003C7350083C6A2
:103D6000250005492207558F631527012389044043
:103D70000149B24022444A8592440249410182806D
:103D8000014582800145828083C715001397270073
:103D9000B70700089387877EBA9703A307000283BB
:103DA0008346650C0D4685476310D60283C64500E1
:103DB000854763EBD70083270543411106C6DC47DF
:103DC0008297B240410182803E8582800145828097
:103DD00041119305000806C622C42A8497100000EA
:103DE000E78040362285814597100000E7808035C6
:103DF00022852244B2404101172300006700A390AE
:103E0000011122CC4EC652C406CE26CA4AC8AA897F
:103E100097E0FFFFE78000F62A8A2E8497E0FFFFF5
:103E2000E78040F5AA842E896314AA00E308B4FE53
:103E30000564371A0020130404FA97E0FFFFE780B7
:103E400060F383270A81330795403335E500B3D704
:103E50008702B3852541B38737036394A500E36EDA
:103E6000F7FCF2406244D2444249B249224A056119
:103E70008280011122CC4EC652C406CE26CA4AC840
:103E8000AA8997E0FFFFE780E0EE2A8A2E8497E078
:103E9000FFFFE78020EEAA842E896314AA00E308BE
:103EA000B4FE37143D00371A00201304049097E045
:103EB000FFFFE78020EC83270A81330795403335E5
:103EC000E500B3D78702B3852541B38737036394F1
:103ED000A500E36EF7FCF2406244D2444249B24985
:103EE000224A05618280370500201305050017036B
:103EF000000067008370411122C43704002006C609
:103F00009307040083C777008DCB97100000E780EC
:103F100080DEB717002003A5878B97E0FFFFE780BF
:103F2000E0991305C05097E0FFFFE780A0971305C5
:103F3000040097100000E780607F2244B2403705FC
:103F40000400410117E3FFFF670023958356C50D69
:103F50000326050D4111814522C406C62A84971007
:103F60000000E780201A0357C40C8326C40D89473C
:103F70006373D70085472306F442B24022440145CB
:103F8000410182808356052803264527411181453A
:103F900022C406C62A8497100000E780A0120357A7
:103FA00004278326042891476373D7008D4723068F
:103FB000F442B2402244014541018280411106C6CB
:103FC00022C495472306F5428146014681452A844D
:103FD00097100000E7800013228597100000E7800B
:103FE0008072B2402244014541018280411106C6DF
:103FF00022C499472306F5428146014681452A8419
:1040000097100000E780000C228597100000E780E1
:10401000806FB2402244014541018280832745429E
:1040200003278542011122CC3EC43AC606CE93F73F
:104030000706130700022A84638AE70213070004B5
:10404000638CE702B9EF2C0097000000E78000D4F2
:1040500029E98357E1009DE7228597000000E7806A
:1040600020F6F24062440145056182802C009700F1
:104070000000E78020D3E9BF2C0097000000E78014
:1040800020D5F9B783078100228563D70700970001
:104090000000E780E0EBF1B797000000E780C0EE9A
:1040A000C9B72C00228597000000E780A0D255BF39
:1040B000797106D622D40018232EA4FCAE87A30D56
:1040C000F4FC8347B4FDC1EB8327C4FD9387C72667
:1040D0002326F4FE8327C4FD83C7C7420D476386AA
:1040E000E70011476386E7024DA08327C4FEDC4B3F
:1040F0000327C4FE035747003387E7408327C4FEE6
:10410000D8CB0325C4FD97000000E780E0E7B5A801
:104110008327C4FD83C7670C13F7F70F8D4763111F
:10412000F7028327C4FD83A70743DC4B91CB83278A
:10413000C4FD83A70743DC4B81450325C4FD82975B
:104140008327C4FE23AA07000325C4FD97000000AF
:10415000E78000E71DA88327C4FD83A70743DC4B46
:104160008DC78327C4FD83C7670C13F7F70F8D47EF
:10417000631DF7008327C4FD83A70743D84B8347FC
:10418000B4FDBE850325C4FD029781473E85B2502C
:10419000225445618280797106D622D40018232EDC
:1041A000A4FCAE87A30DF4FC8347B4FDDDEB8327AD
:1041B000C4FD9387870C2326F4FE8327C4FD83C7A1
:1041C000C74205476386E70009476386E702E1A027
:1041D0008327C4FEDC4B0327C4FE03574700338705
:1041E000E7408327C4FED8CB0325C4FD9700000019
:1041F000E78000D64DA08327C4FD83C7D74299CF5F
:104200008146014681450325C4FD97100000E780E3
:1042100060EF8327C4FDA3860742B5A88327C4FDAA
:1042200083C7670C13F7F70F8D476311F7028327D6
:10423000C4FD83A707439C4B91CB8327C4FD83A771
:1042400007439C4B81450325C4FD82978327C4FE09
:1042500023AA07000325C4FD97000000E78040D98A
:104260001DA88327C4FD83C7670C13F7F70F8D477D
:104270006313F7028327C4FD83A707439C4B81CFB9
:104280008327C4FD83A70743984B8347B4FDBE85AE
:104290000325C4FD029781473E85B25022544561F3
:1042A0008280411106C622C426C289472302050026
:1042B000A300F5002300C50011CA0547630BE608FB
:1042C0000545B24022449244410182803147230196
:1042D000E5001947A301E500A302F500B704044077
:1042E000AE8705472303E500A303E5002A841306F0
:1042F000C00B81453E8597500000E78020BF0567D1
:1043000093060780A69654C19386044014C59386ED
:10431000044434DD930607E0A696232CD50A04C195
:104320008345340013070790AA8726979306C50094
:104330000146636BB602034624000567938604506A
:104340009387C703BA94856501476368C70201452F
:104350008DBF21472301E5001147A301E500A3021A
:10436000F500B7040050ADBF1305072098C288CEF2
:1043700005061307070291066DBF94C3A4C3050782
:10438000938606029107AE94C9B71C4201112EC64E
:10439000985F98478346D10022CC799B06CE26CAE7
:1043A00098C72AC4054732846395E606370710008C
:1043B00098DFD847B706E0FF9386F6FB758FD8C71E
:1043C000D847B706F0FFFD16758FD8C7984B13670F
:1043D000170098CB984B058B75FF0D459700000093
:1043E000E780A0200347C1008547631EF7001C40FB
:1043F00098471367070298C79847059B98C798473F
:104400001367A70098C7F2406244D2440145056192
:104410008280D84793D4050193F4F40F13670704FF
:10442000D8C7984B1367170098CB984B058B75FF2F
:104430000D4597000000E780401BB7072D0099C08D
:10444000B7073D00184051451CDF97000000E7808A
:10445000401A49BF71060A062A968D06898250467F
:104460008A06AE966394B6000145828003C71500A4
:1044700083C70500910522075D8F83C7E5FFC2074B
:104480005D8F83C7F5FFE207D98F1CC2E1BF0D0620
:104490000982785D0A062E966394C5002E85828077
:1044A0001C43910593D68700238EF5FEA38ED5FE7F
:1044B00093D60701E183238FD5FEA38FF5FEE9BFD5
:1044C000184141119A0506C693E505020CCB1C4B19
:1044D00093F70702EDFF0D4597000000E780E0101D
:1044E000B2400145410182801841411106C6C147D1
:1044F0001CCB1C4BC18BF5FF0D4597000000E780DE
:10450000C00EB2400145410182804111014506C6FD
:1045100097D0FFFFE780C03B3777DC02B71700205A
:10452000130707C09387878B6317E502370740009F
:1045300098C38D46372700202326D746884397D037
:10454000FFFFE780A037B2401305C050410117D3E9
:10455000FFFF6700233537A74A04130707206318B6
:10456000E50023A00700372700209546F1B737E77D
:10457000B80513070780E313E5FC3707C00098C3AD
:104580009D46372700204DBF411101468545130543
:10459000600506C697D0FFFFE78000481305C0718D
:1045A00097D0FFFFE78000303705040097D0FFFF6A
:1045B000E780A02E014681453705040097D0FFFF14
:1045C000E780A0223705040097D0FFFFE780E02BAB
:1045D000B24001468D451305D003410117D3FFFFBB
:1045E000670083438280170300006700C3881703B6
:1045F0000000670023811C45D84B058B631C071204
:10460000411126C2C44B9C4F06C622C44AC0FD8C31
:10461000638C04109397C4002A8463D60700970024
:104620000000E78080119397D40063D707002285AC
:1046300097000000E780402085679387078033F765
:10464000F40019C318445CCB63DC04008347740C8A
:104650003707008093F7F70F2303F40C1C44D8CBE3
:1046600093F7240081C71C440947D8CB93F78400F3
:10467000B1C7832704439C4F99C32285829737197A
:1046800000201309C98B8347090093F7F70F85C7EB
:10469000834709000947850793F7F70F2300F900BF
:1046A000834709006379F700228597000000E780BF
:1046B0002097230009001C442147D8CB93F704011D
:1046C00091C7228597000000E780C02293973401AC
:1046D00063D70700228597000000E780002E93979C
:1046E000240163D70700228597000000E780003A85
:1046F0009397B40063DC070083270443DC4F99C31E
:10470000228582971C4437071000D8CB9397A400CA
:1047100063DC0700832704439C5399C32285829757
:104720001C4437072000D8CBB240224492440249AF
:10473000410182808280397122DC26DA4AD84ED645
:1047400052D456D25AD05ECE62CC06DE66CA2A84D5
:10475000370A080097100000E780E0F52A898144B5
:10476000B71A0020214B8549994B614C7D1A631083
:104770000902F2506254D2544259B259225A925A02
:10478000025BF24B624CD24C0545216182809377EB
:104790001900C9CF93FCF40FE6852285971000001D
:1047A000E78060F22AC4A247858BA1CF93972400AB
:1047B000A297D8572324370183464400639F3601CC
:1047C000184B3AC633878403B246B3F64601BA970C
:1047D00003D70727158F23AEE726E68522859700A6
:1047E0000000E780208D83474400639C370191E8F7
:1047F0008347C44263977701228597100000E780C2
:1048000080F0A247A18B9DC395E0938CCA8B83C790
:104810000C0093F7F70F99CB228597000000E780F3
:1048200020805C5423800C0023A4670113591900D5
:10483000850435BF797122D426D24AD04ECE52CCCF
:1048400056CA06D65AC82A8497100000E780C0E8E6
:104850002A898144130A00088549954A631D090085
:10486000B250225492540259F249624AD24A424BFF
:1048700005454561828093771900BDC713FBF40F8E
:10488000DA85228597100000E780E0E52AC6B24766
:10489000858B9DCB93972400A297DC4BDA852285EC
:1048A00023A4370197000000E780208F834744004E
:1048B000639C370191E88347C4426397570122857F
:1048C00097100000E78020E4B24793F7070889CFEC
:1048D000A685228597000000E780C02193972400D9
:1048E000A297DC4B23A44701135919008504BDB7D7
:1048F0001C45011102C6984F22CC26CA4AC83D9BCE
:1049000006CE98CF9C5389462A893EC63244B2448B
:104910003247B24791803D88C583BD8B93F4F47FC5
:104920006382D70299466387D70403278900F24040
:1049300062441C4FD244424993E707011CCF05450E
:1049400005618280FDD0F1473304F40226862A9463
:1049500083254427210597000000E78080B3832743
:104960004427A697232AF4268327C427BE94232E00
:10497000942665BFF1473304F4023D830D8B2A94DE
:104980008347C426BD8BD98FCDF3A147E39FF4F8AD
:10499000930545422146210597000000E78060AF5E
:1049A0008327C4270547A107232EF426B717002025
:1049B000238EE78A9DBF5845411122C45C4306C639
:1049C00026C2F99B4AC02A845CC381452105970011
:1049D0000000E78020AF03463400930744010147FD
:1049E0009306F00F636BC7085C447D57854498CFEE
:1049F00041670507D8CF2547D8CB84CB984322857C
:104A0000130900041377F78098C3A302040C9710CE
:104A10000000E78040CF1C4405677146D8CB930760
:104A2000C4263E85814597400000E780204CAA853A
:104A300023182427228597100000E780209A9307E7
:104A4000840C714681453E8597400000E780004A0E
:104A5000130700F82316240D2304E40CAA852285ED
:104A600097100000E7808097B2402303940C224403
:104A7000924402490545410182808C430507910714
:104A800094C5CC4B94C5B9BF5C4571761306F63F0F
:104A90009847D443058393F6F6EFD4C3D44393E603
:104AA0000610D4C31C45D447F18ED4C79376370083
:104AB00037A70008130747FF3697034707008D46BF
:104AC000631ED700A300E500D84789669386064099
:104AD000558FD8C70967D8CB054582800947A30001
:104AE000E500D847856693860640558FD8C7DDB761
:104AF000F147B387F50279714ECE06D622D426D27D
:104B00004AD052CC56CA5AC8AA9703A7470D83A6C3
:104B1000870D83D7C70C5EC662C4158FAA896373DD
:104B2000F700BA87714433848502854A8D07B39AAA
:104B3000BA00139B2500C16B13DA270093CAFAFF52
:104B40004E9BFD1B4E9413F9F50F138C89008327A0
:104B50004B01984F337777016378EA000327840D80
:104B60008327440D636FF700B250225492540259C8
:104B7000F249624AD24A424BB24B224C054545614A
:104B800082808354C40C998F63F39700BE8483257D
:104B9000040D9396040193873400C1824A8662858E
:104BA00013DA270097000000E780008B8327840D2D
:104BB0000327040D2697BE948327440D2328E40C75
:104BC000232C940CE395F4F883A7C900D85B3377C2
:104BD0005701D8DBADBF411106C697000000E78042
:104BE00080117350003297D0FFFFE78000E2094543
:104BF00097D0FFFFE780C0E197000000E780209199
:104C000097000000E780409E97000000E780009832
:104C1000B240370600203705002013068647854539
:104C2000130505004101170300006700235EB70765
:104C300000209387070003C5670C75151335150011
:104C4000828001114AC84EC606CE22CC26CA52C462
:104C500056C2AE89328997D0FFFFE780A011930733
:104C6000002063F4270113090020E1649384046A9F
:104C7000AA94371A002033B5A400D28A3304B500B1
:104C800083475A8299EB97D0FFFFE780A00EE3E9B4
:104C900085FE6314B400E36595FE37260020A382E9
:104CA0000A8201449307061E631B24039316040122
:104CB00037050020C1821306061E93051008130550
:104CC000050097000000E780E0432285F24062443F
:104CD000D2444249B249224A924A056182803387CE
:104CE0008900834607003387870005042300D70027
:104CF00065BFB71702409843B706FFE0B1061367D8
:104D0000170098C3D843758FD8C39843B706F7FEEA
:104D1000FD16758F98C39843B706FCFFFD16758F77
:104D200098C3D843B70601DFFD16758FD8C323A6F5
:104D300007029843B706F7EAFD16758F98C3370741
:104D4000FF0098C794434167D98E94C39307F7FF38
:104D50003717024014431396E60063440600FD171C
:104D6000F5FBB717024098439316E70063C30600AC
:104D700001A0D843B706C4DFFD16D8C3D843D8C3B3
:104D8000D84313670740D8C3D843758FD8C3D843D7
:104D9000B7061D20558FD8C3D857BD76758FD8D785
:104DA000D857B706000113671700D8D79843558F17
:104DB00098C3B7170240984393166700E3DD06FED9
:104DC000D843719BD8C3D84313672700D8C337177C
:104DD00002405C43A18BF5DF17D3FFFF6700C3D808
:104DE000411122C437040020130444439305C40333
:104DF00006C626C2AA8497000000E780601F9305BC
:104E00005403268597000000E780801E9305540216
:104E1000268597000000E780A01DB24022449244FE
:104E200001454101828041119305100806C622C444
:104E30002A8497000000E78040258D452285970051
:104E40000000E78080242285930520089700000059
:104E5000E780A023B24022440145410182804111F4
:104E600006C691E997000000E780A0128947B2408A
:104E70003E85410182808D468947E39AD5FEB7176A
:104E8000002005472382E78297000000E780E03397
:104E9000B717002023A0A78CB717002003A7478CC3
:104EA000814771D702978147D9B70547639DE502CE
:104EB0000327050F8357850EB377F70291EF09CFCC
:104EC00041118146014606C697000000E780802315
:104ED000B240014541018280B71700200547A382F7
:104EE000E782014582800945828083C71500130748
:104EF00010026386E70213072002638FE706130799
:104F00000002639CE70037170020232CF780B727A7
:104F100000209387074B232AF52601458280371707
:104F200000201307C7811443B72700209387074B3E
:104F300013D686002380D700A380C70013D60601AE
:104F4000E182A381D700834647002381C70023283D
:104F5000F50C2382D7008346570003476700A382DE
:104F6000D7002383E70083C7750003C76500A20746
:104F7000D98F232EF50C55B783C7350003C72500FD
:104F8000A207D98F371700202324F78C79B7B715DC
:104F90000020938585819C411305F00F6386A7044B
:104FA000B727002003C6174B83C6074B37170020CF
:104FB0002206558E83C6274B1307C78188C1C206B8
:104FC000558E83C6374B9387074BE206D18E14C3A9
:104FD00083C647002302D70083C6570083C76700F4
:104FE000A302D7002303F70001458280411106C6C2
:104FF00003C7550083C7450003C6250022075D8F00
:1050000093178601E18763D20706F1479376F60787
:10501000B386F6029387860CAA9603C8860CAA97D5
:10502000136808F82384060D83C607003D8A1377AA
:10503000F70FC19A558E2380C7002392E70003C75C
:105040003500BE850D8B9316270037170008130710
:10505000478C36971843A380E70097000000E7804D
:10506000E037B240014541018280F146B306D602E5
:105070009387C626AA9603C8C626AA971378F80768
:105080002386062755B741119397850106C6E18708
:1050900063D2070293F5F507F147B385F5029385CF
:1050A000850CAA9597000000E780203DB24001459D
:1050B00041018280F147B385F5029385C526D5B7B6
:1050C00093F7F507F145B387B702411106C60547C7
:1050D0009385C726AA9723AAC72623ACD72623AE33
:1050E000072683464500AA956394E60023A2C728B5
:1050F00097000000E780604BB2400145410182808B
:1051000093F7F507F145B387B702411106C6054786
:105110009385870CAA9723A8C70C23AAD70C23AC86
:10512000070C83464500AA956394E60023A0C70EAA
:1051300097000000E780C038B240014541018280FD
:1051400041119397850106C6E18763D5070293F560
:10515000F507F147B385F5029385850CAA95854738
:105160002381F50097000000E780E04CB240014544
:1051700041018280F147B385F5029385C526F9BFC9
:1051800041119397850106C6E18763D4070293F521
:10519000F507F147B385F5029385850CAA95238120
:1051A000050097000000E780A04CB2400145410196
:1051B0008280F147B385F5029385C526C5B71703ED
:1051C000000067006320F147B385F502AA9503D577
:1051D000C5278280411106C697000000E780201E87
:1051E000B2400D45410117F3FFFF670083404111B5
:1051F00006C697000000E780C01BB2400D45410184
:1052000017F3FFFF6700E33E411106C622C426C222
:10521000930485002328C5422E86A6852A8497F00C
:10522000FFFFE78040084C400840268697F0FFFFCC
:10523000E780E015228597000000E78080FB22854B
:1052400097000000E7800006228597000000E780B5
:10525000A0F885472303F40CB24022449244410154
:1052600082801C457D57D8C3370700C07D17D8CB37
:10527000371700801307078098CF0347450009E7D9
:10528000984F1367070198CF984FB7360C00A906BF
:10529000558F98CF984701451367170098C78280AC
:1052A0001C45B70600A04111D847FD1622C406C60A
:1052B00026C2758FD8C7D847B70600407976558F74
:1052C000D8C70327050C1306F67F2A84232007007E
:1052D00058451443F18E14C3144314C31443F19A74
:1052E00014C3034605008546631AD602144393E6A9
:1052F000360014C313070008D8D33707400013073C
:10530000070898D7370780001307070C23A2E71078
:105310001307001423A4E71023A6E71093048400C6
:10532000C145268597F0FFFFE780C019268597F0D5
:10533000FFFFE780A01B5C447D57814623A8070040
:1053400023AA070098CF23AE0700034834001307B1
:105350004401B70500481305F00F63ED06012285EF
:1053600097000000E78020F0B240224492440145BB
:10537000410182801C4390436355060290434D8E49
:1053800090C323A8070088C71C4F9043635E0600A4
:1053900090434D8E90C323A8070088C78506110748
:1053A0006DBF23A00700F1BF23A00700EDB758454C
:1053B0005C4393E727005CC3828058455C43F59BC0
:1053C0005CC382805C45920598431377F78098C34D
:1053D0009843D98D8CC38280984183870500411101
:1053E00002C63D8B63D9070693172700AA97DC4BAB
:1053F0008546B396E60036C694435045139506019C
:10540000634405049443370534FC13050580E98E95
:1054100094C329EF144603A8070013F56600B7A646
:1054200000089386C6FFAA9683C60600B3E6060167
:1054300094C383C6150088435A07CA06558F498FFF
:10544000B7860010558F98C332475C4E0145D98FFF
:105450005CCE41018280930787008A07AA971306D2
:1054600007018546DC47B396C60071B7884383D6EB
:105470004500C98E75BF9C4103870500BD8B6355F0
:10548000070205473317F7008A07AA97D04B1C423B
:10549000E176FD16F58F1CC25C451347F7FF014509
:1054A000D44F758FD8CF828093860701A1078A07D2
:1054B0000547AA973317D700D047D1BF90410111B4
:1054C000B70600E03D8A93172600AA97D84B06CE70
:1054D0001C433EC41C4B3EC6B247F58F3EC6DC455E
:1054E000A5E7B247B7060800D58F3EC6B2471CCB2A
:1054F0008346450085476394F6009C4D5CCB03C80A
:1055000015008547631CF8005C459C4793F707101E
:10551000B5CFA247B7060020D58F3EC4A247B70635
:105520000084D58F3EC4A247D4451CC3854763037E
:10553000F80699C658453396C700545B558E50DB24
:10554000F24001450561828083D645001DE663F384
:10555000F600B687DCC5B247B7060800D58F3EC651
:10556000B247D445D58F83C615003EC68547E39F15
:10557000F6F6B247B706006085BFFD17B697B3D7FA
:10558000D7023248CE07B3E70701D1BFA247B7061B
:10559000001059B78C45C206C182210597F0FFFF64
:1055A000E78080EB71BF9841D4453D8B930787001E
:1055B0008A07AA9783A8C700B70700E003A60800D8
:1055C00003A808013378F80083D7450091C239E376
:1055D0003368F800B7070800B3E7070123A8F8000D
:1055E0000347450085476315F7009C4D23AAF80043
:1055F00003C7150085476318F70083C735009DC7AB
:10560000B70700205D8EB70700845D8E23A0C80019
:10561000014582801387F6FF3E973357F7029316B2
:10562000370133E80601B307F7027DB7B70700106B
:10563000D1BF9C4103870500BD8B635407028A07D5
:10564000AA97DC4B9843635707009843B70600407E
:10565000558F98C39843B70620000145558F98C3CE
:105660008280A1078A07AA97DC47EDB79C41038790
:105670000500BD8B635A07028A07AA97DC4B984343
:10568000B706E0FFFD16758F98C303C71500854662
:1056900079171377F70F63E7E6009843B706001012
:1056A000558F98C301458280A1078A07AA97DC47D6
:1056B000F9B75C45884FDC4F7D8D41811375F5034B
:1056C0008280A1058A05AA95DC4598475C45C84BB0
:1056D000798D82805C45884FDC4F7D8D1375F50395
:1056E00082805845144B5C5B139725003A955849C6
:1056F000B3D7B7009E07084793F7F70FD58F7D8D77
:1057000082805C5537070860610798CB8346450067
:105710000547639AE60013054542C8CB9843B78610
:105720000080558F98C382808347750091CB5C457C
:105730009C47858B91C70327050C1C43F19B1CC319
:10574000828001458280397122DC371400081304FD
:10575000848D4AD862CC03298500032C040026DA04
:105760004ED652D45AD05ECE06DE56D281447D5AF1
:1057700093090000930B4400294B832A09005685A6
:1057800097300000E78000E12AC697300000E780EC
:1057900060E6AA85568597300000E78080ADE285F7
:1057A00097300000E780608A97300000E78080DE55
:1057B0003246AA86A6855E8597400000E780A08FC6
:1057C000832A0900CE85568597300000E7806080E7
:1057D0006354A000268AD68985041109E39F64F9E1
:1057E0004E8597300000E78000F7104C544C97101E
:1057F0000000E780406A97200000E780E0142A86D6
:10580000D2851305040297400000E780C08A6254E5
:10581000F250D2544259B259225A925A025BF24B78
:10582000624C01452161173300006700A33300007B
:105830000000000000000000000000000000000068
:105840005D7106C012C216C41AC61EC82ACA2ECC62
:1058500032CE36D03AD23ED442D646D872DA76DC50
:105860007ADEFEC0F322103496C0F322003096C2D6
:10587000F322407C96C4732520348A8597C0FFFFAD
:10588000E780C06386427390123496427390023070
:10589000A6427390427C82401242A2423243C243EB
:1058A0005245E245724682561257A2573258C258A4
:1058B000525EE25E725F864F6161730020300000CD
:1058C000000000005D7106C012C216C41AC61EC8D0
:1058D0002ACA2ECC32CE36D03AD23ED442D646D880
:1058E00072DA76DC7ADEFEC073D0E87E7350F97E21
:1058F00073D0B97EF390D07E73700430B64273904B
:10590000427CA642739012349642739022348240B5
:105910001242A2423243C2435245E2457246825687
:105920001257A2573258C258525EE25E725F864FDB
:10593000616173002030011122CC26CA4AC84EC6CC
:1059400006CE2A84AE8497000000E780800A97B7CD
:10595000FF179387E7F79843FD572A89AE896305B8
:10596000F7042285A68597000000E78080530DCDBF
:1059700097B7FF17938787EC9043D4432285A6857A
:1059800097100000E780A03C6343A00497B7FF177F
:10599000938747EB9043D4432285A6859710000058
:1059A000E7802045634B0500F24062444A85CE857E
:1059B000D2444249B2490561828097300000E780B5
:1059C00040FA930720021CC101498149F1BF973079
:1059D0000000E78000F9930720021CC197B7FF176A
:1059E000938747E503A9070083A9470075BF79712D
:1059F000939715003737864022D426D24AD006D650
:105A00004ECE52CC56CA5AC85EC662C46AC26EC076
:105A10008583130717E42E84AA8413D9F5016373D1
:105A2000F7023707F07F63ECE7149396C500B18265
:105A3000C98E6396064081470147631D0938AA87CE
:105A40002E8749AE3737D63F130727E4636EF71E1C
:105A50003707303E17BAFF17130ACAE363ECE7387B
:105A60002686A2862685A28597100000E780A042A0
:105A700097B7FF17938787DF9043D4432A89AE896E
:105A800097100000E780204197B7FF17938787DEC4
:105A90009043D44397200000E780A0844A86CE86B6
:105AA00097100000E780203F97B7FF17938707DD27
:105AB0009043D44397000000E78060754A86CE8605
:105AC00097100000E780203D97B7FF17938787DB8B
:105AD0009043D44397200000E780A0804A86CE867A
:105AE00097100000E780203B97B7FF17938707DAEE
:105AF0009043D44397000000E78060714A86CE86C9
