:020000040800F2
:10000000B1AA010000000000000000000000000094
:1000100000000000000000000000000000000000E0
:1000200000000000000000000000000000000000D0
:1000300000000000000000000000000000000000C0
:1000400000000000000000000000000000000000B0
:1000500000000000000000000000000000000000A0
:100060000000000000000000000000000000000090
:100070000000000000000000000000000000000080
:100080000000000000000000000000000000000070
:100090000000000000000000000000000000000060
:1000A0000000000000000000000000000000000050
:1000B0000000000000000000000000000000000040
:1000C0000000000000000000000000000000000030
:1000D0000000000000000000000000000000000020
:1000E0000000000000000000000000000000000010
:1000F0000000000000000000000000000000000000
:1001000000000000000000000000000000000000EF
:1001100000000000000000000000000000000000DF
:1001200000000000000000000000000000000000CF
:1001300000000000000000000000000000000000BF
:1001400000000000000000000000000000000000AF
:100150000000000000000000000000007370043088
:10016000170500001305C5FF8545F605637BB5003F
:1001700089816378B500170500001305C5002E9529
:1001800002859302002073A0027D970200009382F3
:1001900062E773907230973200009382E21A739094
:1001A000C27E73E0C07E973200009382A2117390EA
:1001B0005230971100189381E19B178100181301A9
:1001C00061E417850000130525A0970500189385A5
:1001D00065E3170600181306E62163FAC5008322BB
:1001E000050023A0550011059105E3EAC5FE17059A
:1001F00000181305252097250018938525BB6377E4
:10020000B500232005001105E36DB5FE73F0023241
:10021000176500001305651E97600000E780A015B4
:1002200097600000E780E02097100000E7800078EA
:100230000145814597100000E78080251763000085
:100240006700431801A073E00232828073F002322B
:0402500082800000A8
:10028000307800000A50726F6772616D2068617388
:1002900020657869746564207769746820636F6489
:1002A000653A00006E6D690A0000000074726170AA
:1002B0000A000000FE1B0008B61C0008CC1C000849
:1002C000F41C00080A1D0008FE1B0008201D000881
:1002D00073303D252E33662C7A70303D25643B20EB
:1002E00073313D252E33662C7A70313D25640D0A1D
:1002F000000000000000C0400000803FFFFF7FFFC3
:100300008DEDB5A0F7C6B03EFE3000087C31000888
:10031000923100081C3200088E320008203200089A
:1003200068030008700300087803000880030008D1
:100330008803000894030008436F6E76324400007F
:100340004741500046430000536F66746D6178006A
:1003500052657368617065004457436F6E7632442E
:100360000000000041444400696E74380000000041
:10037000696E743136000000667033320000000090
:10038000667031360000000066703820312E342E41
:100390003300000066703820312E352E3200000008
:1003A000000000000000503F0000000080842E414B
:1003B0003D3D3D3D3D3D3D3D3D3D3D3D3D3D3D3D6D
:1003C0003D3D3D3D3D3D3D3D3D3D3D3D3D3D3D3D5D
:1003D000206D6F64656C2073746174203D3D3D3DFC
:1003E0003D3D3D3D3D3D3D3D3D3D3D3D3D3D3D3D3D
:1003F0003D3D3D3D3D3D3D3D3D3D3D3D0000000021
:100400006D646C5F747970653D25642028257329BF
:10041000290A00006F75745F6465713D2564200AC8
:1004200000000000696E7075745F636E743D256432
:100430002C206F75747075745F636E743D25642C29
:10044000206C617965725F636E743D25640A0000FB
:10045000696E70757420256464696D733A2028256F
:10046000642C2025642C202564290A006F75747083
:10047000757420256464696D733A202825642C20E6
:1004800025642C202564290A000000006D61696E36
:10049000206275662073697A652025643B20737538
:1004A00062206275662073697A652025640A0000FF
:1004B0002F2F4E6F74653A20504152414D20697381
:1004C000206C6179657220706172616D2073697A48
:1004D000652C20696E636C75646520616C69676E5C
:1004E0002070616464696E670D0A0D0049647809C3
:1004F0004C61796572092020202020202020206F67
:100500007574736861706509696E6F6674096F75DB
:10051000746F667409504152414D094D454D4F5518
:1005200054204F50530000002D2D2D09496E707539
:100530007420202020092533642C2533642C253396
:1005400064092D2020200930202020200930200996
:10055000256C642009300A002323234C25643A20AB
:1005600000000000626F6479206F6674203D2025D2
:10057000640A0000747970653D25642C2069735FFE
:100580006F75743D25642C2073697A653D25642C54
:1005900020696E5F6F66743D25642C206F75745FF3
:1005A0006F66743D25642C20696E5F64696D733DD0
:1005B0005B25642C25642C25642C25645D2C206F20
:1005C00075745F64696D733D5B25642C25642C250F
:1005D000642C25645D2C20696E5F733D252E336687
:1005E0002C20696E5F7A703D25642C206F75745FD6
:1005F000733D252E33662C206F75745F7A703D2510
:10060000640A0000436F6E7632643A206B773D25B2
:10061000642C206B683D25642C2073773D25642C69
:100620002073683D25642C2064773D25642C20646C
:10063000683D25642C206163743D25642C20706125
:10064000643D5B25642C25642C25642C25645D2C7D
:1006500020646D756C3D25642C2077735F6F667424
:100660003D25642C20775F6F66743D25642C2062E5
:100670005F6F66743D25640A0000000046433A201F
:1006800077735F6F66743D25642C20775F6F6674A7
:100690003D25642C20625F6F66743D25640A00006E
:1006A0004457436F6E7632643A206B773D25642C55
:1006B000206B683D25642C2073773D25642C2073C6
:1006C000683D25642C2064773D25642C2064683DBA
:1006D00025642C206163743D25642C207061643D89
:1006E0005B25642C25642C25642C25645D2C2064FA
:1006F0006D756C3D25642C2077735F6F66743D25A6
:10070000642C20775F6F66743D25642C20625F6FD8
:1007100066743D25640A0000253033640925732082
:100720002020202020092533642C2533642C2533F8
:100730006409256409256409256409256C64090098
:100740000D0A546F74616C20706172616D207E259A
:100750002E3166204B422C204F5053207E252E32C6
:1007600066204D4F50532C206275666665722025B9
:100770002E3166204B420D0A0D0A00005000000089
:100780003000000040000000300000003000000099
:10079000500000004000000038030008400300083B
:1007A00044030008480300085003000858030008E9
:1007B0006403000803001C001C000100000000206E
:1007C00003001C001C0001000000000000007A442F
:1007D0006D6E6973742064656D6F00002533642C41
:1007E00000000000746D206D6F64656C206C6F619B
:1007F00064206572722025640A000000746D5F72C7
:10080000756E00003D3D3D25732075736520252ED6
:100810003366206D730A000025643A20252E336666
:100820000A0000002323232050726564696374204A
:100830006F75747075742069733A204E756D6265BA
:10084000722025642C2070726F6220252E33660A78
:1008500000000000746D2072756E206572726F72F8
:100860003A2025640A0000004D414958000101006A
:1008700001000600B80500000000000003001C0095
:100880001C0001000100010001000A00000000003E
:100890000000000000000000000000000000000058
:1008A00000000000000000000000000098000000B0
:1008B000000000001003000003001C001C000100E9
:1008C00003000D000D0004008180803B80FFFFFFCE
:1008D00031E9843C80FFFFFF0303020201010100B4
:1008E00000000000000000000000000050000000B8
:1008F00060000000880000007D774A3C85AD873CA1
:100900002692C53BB9C9483C2F5E5B4614C0B081F6
:10091000C8320AD86F098127F6D67F7950F9162B8D
:100920002B5E60F385997A0A8167651900000000E3
:1009300094FBFFFF94FCFFFF94410100ABFAFFFF23
:1009400000000000B00100001003000000000000E3
:1009500003000D000D00040003000600060008005F
:1009600031E9843C80FFFFFFA02A843C80FFFFFF29
:10097000030302020101010000000000000000006A
:100980000000000050000000700000009001000016
:10099000B6E08A3BE0A8363B503DC93B3E4F913B19
:1009A000889E573B22A86C3B1F259F3BF240713B22
:1009B000F10D283E713EA8DAEFAD3D2C81B5CC0F8C
:1009C000F2DFDCDCBF9FD1E9EAE9D0C3C199F25381
:1009D00048E81B34DDC3BAAF81DBACB1EB2B1309A4
:1009E000181C202F342056463D12D6DBD4FB003E87
:1009F0005B3F485D33553F1081C0D3D693BFD5D7F9
:100A0000CAC9F21B0224F81BF9F7DFF807FF501CD4
:100A1000E6B8C71AD2CE0C0911E1F60E1F2F20FA44
:100A20002E2BC7F80E4947192B11F73706E9B9B92C
:100A3000E77F4214A1F429D1D507F9FC0C1B2F2F15
:100A4000251E0702EBDD08A8B42B1DE41631161F86
:100A5000F75C17E00A150825A4D91A19F9F7F98DDA
:100A6000A9CB81C0EC1851C40C400C6524CDCDCD70
:100A70008781CDC29FE47552F808080C8E8A903A9F
:100A80001C03773BF1454B064841101A05FE00FF59
:100A9000EAAC81ADDAB6CB13EFEAD5C8B30FFDF4FB
:100AA000FAFE0D044B4C1C4B44093833B0D2178D61
:100AB000AFE6DACBDD2E0F043C7F3D245332B0C7C6
:100AC000E1F12D13E74D24A1D8F1B183D0C5C0E2E7
:100AD000241FFFFFDED1000057C8FEFF53CC0000EB
:100AE000F376FFFF99FCFFFFA01200005E1BFFFFE3
:100AF0000000000050050000000000007805000024
:100B000003000600060008000300020002001000B7
:100B1000A02A843C80FFFFFF0509683D80FFFFFF9E
:100B200003030202010101000000000000000000B8
:100B300000000000500000009000000010050000C0
:100B4000E393AD3C6196683C71D9963CCAA14F3C99
:100B50007B9B6D3C3594A43CC1F4A13C36E6833CC0
:100B600093D4453C16825F3C39F8563C8BF0AA3C46
:100B70006839663C581EA33CD81B863C38AD9A3C6D
:100B8000FBF84999FBD682FF07DFFD164928FD03D4
:100B900010100E13FE1931230D81A501DEFB18F88C
:100BA000CAF6E1F214F9FF3D491F2DF8044205137E
:100BB000F11B032AFB17DEEDFBE6F6C81605D5325E
:100BC0004310133840E90529A4AE2DABA105CA8115
:100BD0004AD0BAE53DC8BC06EB2B32F912402ECC08
:100BE00010E4045E58032F1A33D2F5F4112C08FDDB
:100BF000DD1711EC4882F23EE422112AC80E2A0CBD
:100C000053B04B0ACB09F94247096A30E2FC02BBF8
:100C1000480AF4DC7FD69DFDB00712613411CE4442
:100C2000C0FD0D1929CFFBCDE0EDAEDEE9F72219AD
:100C300011E91918D05217DA1FB4102336EF08DD66
:100C4000C2E830D308230224991DED120311EEE50A
:100C5000DCF2130A261AF202F8FCCB845CED1D9933
:100C6000F2573EF38AD6D6C116058100FD92D936D9
:100C7000E72517E80519330D48ACDF15E9F5BDF791
:100C8000F03172231665E2B5F40DEABCF33B5ADF8E
:100C90009110E9F720B2FBE9FC0FB63B04041B25D9
:100CA00095C6D5FAA190DEB98B39E8C109F9051DC1
:100CB0001B0F39FFD546F7297A6AFAF7083DAF07C7
:100CC000564102D7ECE701E0D1B9C194D4EBCADDBB
:100CD000D6B2E1E10CFC381101EADD2381E410FF1A
:100CE00000201AC7F43BF9E581E712E0EB070E3765
:100CF000F636F6ED2709380C0DE914EEDE161E2C3B
:100D00002222E3FB144508F2C7F8F9F413DBDE10E6
:100D100021DD0406220F1A2318EFEC00DED9C4CF20
:100D20000BF0FE37F2EEF44C48ECBD27FBC4EA09A9
:100D300029000C2A2EDCF803D1B3160481D309F75D
:100D4000D3FAF5D3E0E0C6FF19F62F01F70A260221
:100D5000F52C110B22FFFC06DDFD16D9EB4F1CE034
:100D6000E1E3D515E8F664293DC32349E1CEDBBCB8
:100D7000DED9E3D3B00C222A2C080D0C7FF61BD34E
:100D800017E011F6DCFD08CAF628F3E3B7310920B5
:100D900014A818F2E3253BD71AC5B8E2F20BF81EE7
:100DA000B9FA3FD1F4CD24DE03411108FDE6DDFCA4
:100DB00022140F070E2501D8022BF994DC1FFAFA32
:100DC0007C71EF094D9FB981E820E6494316D0496F
:100DD00037DF00F29A159A8FD8D346D0DFC8D7F004
:100DE0002412FF12F94215F01013AEE433A6201EB0
:100DF000B2DF24DA0671622A0A2C34CC27EB3A627D
:100E0000F0141F562CCC4E3648FC901C0DCA1D58B1
:100E100016441AEB880F21F9FB1E5A2EA70DFB1062
:100E2000BFD13BE7112B3CDDFB08E2A281D201C31D
:100E3000E629AEDE33F1057229E00705C1CFB7F22E
:100E4000EC1851FFE23D350CB30632A5AD223DEB67
:100E50007F4592890CC720123B00521D08B0A3EEBB
:100E6000DC0F1CFA2B06FA0304E1D216F8DEE9398E
:100E700022303F36141F1ECB3E2BD4A78CF1BDD0A1
:100E8000E03221FF466BF5FD5135C8CEA706EFBA1B
:100E9000F8541E1D3727D6D281F6F9E0EAC4FDFAD0
:100EA000E44C29FB2AD6C5C60C31243CFC0E029426
:100EB000F0EA4037221FCEC3E2F02A24F6EDDDD55A
:100EC000E82A4D592E16111C152D18C5FAFD1FF8CC
:100ED000D32BEBE7F6C9DC34F8D7EED71C0F1D1F78
:100EE0009B9FD803303AB402CE1A0843E5F8DF28B6
:100EF000BFD8A992E7BE18E96E6097022AFBCF0718
:100F00000BE8DC052D433C344726099799F2B715C9
:100F10009EB4D68B0BBABAEAD1027F38F1302933AE
:100F20004C30521D015332BFC9E808D7C9E0F9C897
:100F30002ACFE23E0817FD05C9EEF3D3051AFF16C6
:100F40000310E23D20EEFFF90AEF090A02F9FDDA8B
:100F5000DE2A090807D002D37FDFEE2C27FFE0F658
:100F6000F70FE9F222FBF5FF3D5314EB15FEE40603
:100F7000DC2711E31B9DD807ECCDB0EEF8050D2C56
:100F800024F8DFFEEC1B69E604DB043B531B3D2029
:100F90000700C8DB47D7E0D8C7DEDCE619DCF7EF8F
:100FA0001433F32DEEACE19CFBD5FEFF142D81FC38
:100FB000F00306CCE31EDFA2EFEDEB21063C3C7F05
:100FC00043F71601372C4DC4F9F5102BFB02D10C59
:100FD00008992BFBB4FCE3D5D437CC0429FA51167D
:100FE000181903010AE744BF01F4F7F7E52A6F3641
:100FF0001F4C0393DBD8E03A18F8080E4607E3CEFF
:10100000E8580000382700000CE2FFFFDC6AFFFF11
:101010007E85FEFF76170000EB5AFFFF46CBFFFFF1
:10102000B680000031AFFFFFDB360000F6EFFFFFB8
:101030000C82FFFF82E2FFFF5512FFFFF1BF0000AD
:1010400001000000300000007805000000000000F2
:101050000300020002001000010001000100100066
:101060000509683D80FFFFFF211AB73C80FFFFFFA5
:10107000020000003001000000000000A805000090
:1010800001000100010010000100010001000A0040
:10109000211AB73C80FFFFFFFD061B3E2A0000001F
:1010A000400000006800000008010000000000008F
:1010B000E9E2AF3C0000000000000000000000007A
:1010C0000000000000000000000000000000000020
:1010D00000000000000000002AE229BF0BDD09FA31
:1010E00042B1F9C246D20FB534EAB317DBFBBC0FED
:1010F00024DFCEF91CE0BB38B7E2280C049339E3B7
:10110000F5EE3CC637F6B641CABAD7EDC3FD3A0D87
:10111000D21D07A9E906532525D71A31F00E8119EA
:10112000EFC00A2DB533FBE6DC1D0383E248D92866
:10113000233134E6EBDBDDDCE74EC0CF253C98B550
:10114000ECCC36C33C08F2E30DF74144901F220774
:10115000CB0BB809FEC8BF0BBDF506D24DCC07DFDF
:101160001FFBF92FE6A22600F036FCE9F3EB0EB0E8
:10117000BD3FC61CCA4D02F4BCB2FFFF1AA5FFFF5B
:10118000C5C3FFFF1CAAFFFF44C4FFFF64CCFFFFE1
:10119000FB9CFFFF62C3FFFF97BDFFFFE6C9FFFF98
:1011A0000300010030000000A8050000000000005E
:1011B0000100010001000A000100010001000A0015
:1011C000FD061B3E2A0000000000803B80FFFFFF61
:1011D0000000E0FE422EE63F0000E0FE422EE6BFA9
:1011E000763C7935EF39EA3D763C7935EF39EABD21
:1011F000000000000000E03F000000000000E0BF31
:10120000B23500000235000008350000023500004C
:10121000A43500000235000008350000B23500009A
:10122000B2350000A435000008350000E8340000A5
:10123000E8340000E83400000C3500005C3A00009F
:101240005C3A0000743A0000563A0000563A00003A
:10125000023B0000743A0000563A0000023B0000D6
:10126000563A0000743A0000543A0000543A000024
:10127000543A0000023B0000D0460000FA4600004D
:1012800022470000FA4600006E470000FA460000C0
:1012900022470000D0460000D04600006E47000004
:1012A00022470000E2460000E2460000E24600005D
:1012B0002647000052490000524900006A490000D8
:1012C0004E4900004E490000B04900006A49000044
:1012D0004E490000B04900004E4900006A49000034
:1012E0004C4900004C4900004C490000B049000046
:1012F00000010202030303030404040404040404BD
:10130000050505050505050505050505050505058D
:10131000060606060606060606060606060606066D
:10132000060606060606060606060606060606065D
:10133000070707070707070707070707070707073D
:10134000070707070707070707070707070707072D
:10135000070707070707070707070707070707071D
:10136000070707070707070707070707070707070D
:1013700008080808080808080808080808080808ED
:1013800008080808080808080808080808080808DD
:1013900008080808080808080808080808080808CD
:1013A00008080808080808080808080808080808BD
:1013B00008080808080808080808080808080808AD
:1013C000080808080808080808080808080808089D
:1013D000080808080808080808080808080808088D
:1013E000080808080808080808080808080808087D
:1013F00000000000000000000000000000000000ED
:1014000000000000000000000000000000000000DC
:1014100000000000000000000000000000000000CC
:1014200000000000000000000000000000000000BC
:1014300000000000000000000000000000000000AC
:10144000000000000000000000000000000000009C
:10145000232D302B20000000686C4C00656667452A
:10146000464700003031323334353637383941425F
:1014700043444546000000003031323334353637BE
:101480003839616263646566000000001D7186CEB4
:10149000A2CCA6CACAC8CEC6D2C4D6C2DAC0975099
:1014A0000000E78040EE370500081305057DB7040E
:1014B000002097500000E780A03F0144938404007F
:1014C000B7090008714AED4A13090031B387840057
:1014D00083C507001385C97D97500000E780801CF5
:1014E000B367440363975701294597500000E7808D
:1014F00040200504E31C24FDB70500081384457B48
:1015000031469385457B480097500000E78080FB7B
:101510009305C4003146080897500000E78080FA20
:10152000371400081305848697200000E780408F59
:10153000B736000893058486180893866629014605
:10154000281097000000E7804049AA8505C53705A7
:1015500000081305457E97500000E780A0147D55D4
:10156000F6406644D6444649B649264A964A064B52
:1015700025618280140850008945281097000000DA
:10158000E780005097500000E780E0DF2A8970086C
:101590000C08281097000000E780005B37440F001C
:1015A00013040424AA8497500000E780C0DDB335FB
:1015B000850237460F00130606248146330585024F
:1015C00097200000E780C036AA89B33589023746E4
:1015D0000F00130606248146330589029720000078
:1015E000E78000353385A94097500000E780C0AE02
:1015F000B707000883A5C77C97400000E780401A22
:1016000097500000E78060B72A86AE86371500083D
:10161000B70500089385C57F1305458097500000E6
:10162000E780400897500000E780E0D5B5EC925481
:10163000FD59130900000144371B0008A94A8840DE
:1016400097500000E78060B32A86AE8613058B8131
:10165000A28597500000E780E00403AA0400CA8531
:10166000528597400000E78000396354A000A289AA
:10167000528905049104E31454FD4A8597500000F3
:10168000E780A0AF2A8637150008AE86130545828D
:10169000CE8597500000E780E000281097000000FA
:1016A000E780E03C01456DBD37150008A6851305B0
:1016B000458597500000E780E0FEC5B7B7170240A8
:1016C0009843B706FFE0B1061367170098C3D843E5
:1016D000758FD8C39843B706F7FEFD16758F98C36C
:1016E0009843B706FCFFFD16758F98C3D843B7061D
:1016F00001DFFD16758FD8C323A607029843B706EE
:10170000F7EAFD16758F98C33707FF0098C7944313
:101710004167D98E94C39307F7FF371702401443EC
:101720001396E60063440600FD17F5FBB717024069
:1017300098439316E70063C3060001A0D843B70699
:10174000C4DFFD16D8C3D843D8C3D84313670740B6
:10175000D8C3D843758FD8C3D843B7062920558F2F
:10176000D8C3D857BD76758FD8D7D857C16693865A
:1017700016F1558FD8D79843B7060004558F98C3F4
:10178000B7170240984393164700E3DD06FE9843DF
:10179000B7060010558F98C3B717024098439316A9
:1017A0002700E3DD06FE9843B7060001558F98C376
:1017B000B7170240984393166700E3DD06FED8434F
:1017C000719BD8C3D84313672700D8C3371702408B
:1017D0005C43A18BF5DF828079714ECEAE89B7056F
:1017E000000809469385052822D426D24AD052CC37
:1017F00056CA06D62A89714497500000E7806010C7
:101800003D4AA54AF154B3178A00B3F73701B3D75D
:10181000870093F7F70F63ECFA029387070393F7B8
:10182000F70F05469305F1004A857114A307F100EF
:1018300097500000E780E00CE31794FCB25022546C
:1018400092540259F249624AD24A45618280938792
:101850007703F1B737070020130707371C43B72674
:101860000020938686DA3E95636BD500B77600201C
:101870009386060063E5A60008C33E858280FD5777
:10188000EDBF7D558280411106C697500000E7806C
:10189000C006B240133515003305A04041018280D7
:1018A0007971B705000822D47D462A84938545289E
:1018B0000A8506D697500000E780C0C079468A8521
:1018C000094597500000E780C003A28509459700AD
:1018D0000000E780A0F0B71500080546938545860F
:1018E000094597500000E780C00101A07D15133520
:1018F00025008280011106CE2EC697500000E78099
:10190000C0FF01C9B24589670145DCC1F2400561EC
:1019100082807D55E5BF7D558280B70700D2238048
:101920000700A38507001205B71700D23E9563E3B1
:10193000A700828023A00700C107D5BFF32750303E
:1019400093F707FC93E73700739057308280B70511
:101950000008411115469385452A054506C697504E
:101960000000E78000FA054597000000E78080F35B
:1019700041119347F5FF22C406C6139747012A84F5
:1019800009E797000000E780C0FCB705000815468E
:101990009385C52A054597500000E78080F622858B
:1019A00097000000E78000F0411106C69700000094
:1019B000E78000D11305700597000000E78020F64E
:1019C00097000000E780C0F7B240410117F3FFFF26
:1019D0006700A3878280411122C42A848841B747C7
:1019E000495806C626C24AC09387D714631DF50618
:1019F00083C74500214591EF0CC054C03A89AE849D
:101A000021EEC84597500000E78040A908C401E9CD
:101A10001145B240224492440249410182808547E7
:101A20002318F40088480DCD97500000E78000A7E8
:101A300048C479DD938704045CC823190400314647
:101A4000938544014A8597500000E780A0A71C4475
:101A500001452324F90075BF10C423180400D9B729
:101A600023260400C1BF09456DB78357050191C7FF
:101A70000845175300006700A3A38280797183573C
:101A8000460026D28354260006D622D4B384F4021C
:101A9000835766004AD04ECE52CC56CA5AC85EC64C
:101AA000B384F40285476388F5008947638AF508A3
:101AB0001C469CC619A81C413689328483AA070695
:101AC00003AB47068149639E9900B2502254925459
:101AD0000259F249624AD24A424BB24B0145456132
:101AE00082801C4413972900D685BA978843032A1D
:101AF000890097400000E780A0CAAA8B5A859740CA
:101B00000000E7806051AA855E8597400000E7806D
:101B100000984E9A97400000E780004A2300AA00F0
:101B2000850955B70C469846BE9583C505003E9776
:101B30008507938505F82300B700E39597FE71B7F5
:101B40008147E5BF317126DB56D3AA84B28AE80803
:101B500031464ED752D55AD15ECF06DF22DD4AD963
:101B600062CD66CB6AC96EC797500000E78080954A
:101B70009C40370A00082399040093870704DCC8B7
:101B80008149194B130A4A2BB14B984083D7240142
:101B90000357A70063E2E7020145FA506A54DA549A
:101BA0004A59BA592A5A9A5A0A5BFA4B6A4CDA4C81
:101BB0004A4DBA4D29618280C04803AC840081CF70
:101BC0001C44214693050401E297E808BED29750D1
:101BD0000000E780208F5C44130984012146E297CE
:101BE000CA85C818BEDE97500000E780A08D8357D5
:101BF00004006363FB1C8A07D2979C4382874C5482
:101C00007444304483483403034824038347140353
:101C1000034704032ED80C54A29622962ED64C507D
:101C2000E8082ED40C502ED26C40A2952ED04C5CDD
:101C30002ECE8345B4032ECC8345A4032ECA834500
:101C400094032EC8834584032EC6835564032EC493
:101C5000834554032EC2834544032EC0CC189700FD
:101C60000000E780E01515F9DC4081C7A2852685D4
:101C700082978357240095C7B38C79032146CA8580
:101C8000D69C668597500000E780C0839C4083AD5A
:101C9000840003C757005C4461E3BE9D23A4BC01DC
:101CA00085095840DC48BA97DCC883D724018507EA
:101CB0002399F400D9BD5C54185454501050CC18DA
:101CC000E80897100000E780E0AB71BF1858145C7B
:101CD00050584C5483288402032844021C502297F5
:101CE0002EC0A2962296CC18E80897100000E78034
:101CF000C0B695BF5C54185454501050CC18E80826
:101D000097100000E780C0CCB9BF5C541854545001
:101D10001050CC18E80897100000E78080E2A1B7C7
:101D2000930504012146A81097400000E7808079C0
:101D30001C585054832884023E9C032884035C581A
:101D400058501450AC1032C0E808D018E2D89710A0
:101D50000000E78040DF01BF0357C401035CA4011A
:101D6000014D330CEC020357E401330CEC02330950
:101D7000FC006E991D09137989FF63158D0123A459
:101D80002C0139BFB386A701EE9603850600545493
:101D900013172D004A97158DBAC6BEC49740000090
:101DA000E78080270C54050D97400000E78020CC89
:101DB0003647A64708C3D1B71545C5B3717122D5BB
:101DC0002E431E440E4E56CBCA5EFA5A336364004D
:101DD0003363C3014ECF5AC95EC706D726D34AD153
:101DE00052CD62C566C36AC1EEDE054EDA5BBE49FE
:101DF0004E4B33635301E393CE191D4E639DDB4F6E
:101E00006A54954E0D4E63C88E4EB304F702E54EEC
:101E1000254E63C29E4E639974013333600033E3F1
:101E200069000D4E6319034C3ECE9C452EC22A8993
:101E30003EC4B7070008035A650083DC650003A5AC
:101E4000872FFE4546DE42DC3A8436CC32CA371D47
:101E5000002097400000E780A0942AC6014C130D93
:101E60004DD6634B9C0385476387F40422886353F4
:101E700004000148B3080A033706002001458145E4
:101E80008147130606407247635AE54213972500BF
:101E900032973E83814639A193172C00B38DA70159
:101EA000DA978843DE45050C97400000E78020BCA8
:101EB00023A0AD007DB793171A003ED6B7170020B8
:101EC000938747D63ED8B707000883AD472F02C88F
:101ED00002D09247025783D72700635DF74002CEB6
:101EE00002D295A8C247835A49000144B38AFA0234
:101EF000F247BE9A83576900B387FA02832A8900A2
:101F0000BE9AD247338C4701BE899D47B38757415C
:101F10003EDAA247338B8700924783D76700FD17CD
:101F20006349F410E2470A04B38B8700C2573E941A
:101F30009D47338C5741924703D76700A247B307A9
:101F4000FB4063C5E720925762575AC485073ED2CB
:101F5000F247BA973ECE9247125783D74700E343E2
:101F6000F7F88257725785073ED0C247BA973EC8E6
:101F70008DB726D4E24703250D00DE979C433E959E
:101F800097400000E7804009C257DE978C43974096
:101F90000000E780C0ADEA570547AA8C638EE704CE
:101FA0000D476386E706A2573245E6853307FB00F7
:101FB000BAC297400000E78080ABAAC00E55110D51
:101FC000910B97400000E78020058647AA853E8553
:101FD00097300000E780A04B97400000E780C0FDED
:101FE0001647A2572300A7000547E394E7F8B25726
:101FF0000904BE993E9C31BF930500009740000044
:10200000E780609FE341A0FA930C000069BF93054D
:10201000000097400000E780009EE357A0FEEE8599
:10202000668597400000E780009DE35EA0F6EE8C99
:102030009DBF93758AFFCE866287D6870146014889
:1020400052553E956376B50C0383070083880600DE
:1020500003050700A107B3886802A106210733051D
:102060006502C298038397FF038896FF2A960305AB
:1020700097FF3308680233056502C2980383A7FF00
:102080000388A6FF32950306A7FF330868023306CC
:10209000660246980383B7FF8388B6FF329503062E
:1020A000B7FFB38868023306660246980383C7FF0A
:1020B0008388C6FF2A960305C7FFB38868023305E5
:1020C0006502C2980383D7FF0388D6FF2A960305CB
:1020D000D7FF3308680233056502C2980383E7FF20
:1020E0000388E6FF32950306E7FF330868023306EC
:1020F000660246980383F7FF8388F6FF329503064E
:10210000F7FFB38868023306660246982A960DBF29
:1021100063F64503B387BA0083860700B387B90027
:1021200003870700B307BC00838707003307D70284
:102130008505B387D7023A983E96D9BFC2D4B2D6A6
:10214000130D8106931B240002D42DB513768AFF4C
:102150004E87D6878146B305FC0063E5C506636EEE
:10216000460D03A50B00369597400000E780C0EAB6
:102170000C4097400000E780808FEA570547AA8C03
:10218000638AE70C0D476382E70E3245E685050B4F
:1021900097400000E780A08DAA8C0E55D299910B34
:1021A00097400000E78040E7AA85668597300000E9
:1021B000E780E02D97400000E78000E0A30FABFE32
:1021C000110495BB83050700038507002107A107BC
:1021D0003305B502830597FF3695838697FFB3864F
:1021E000B6028305A7FFAA960385A7FF3305B502AC
:1021F0008305B7FF36958386B7FFB386B60283059E
:10220000C7FFAA960385C7FF3305B5028305D7FF2D
:1022100036958386D7FFB386B6028305E7FFAA9675
:102220000385E7FF3305B5028305F7FF36958386FF
:10223000F7FFB386B602AA9639BFB387CA003387C1
:10224000C90083870700030707000506B387E70275
:10225000BE9631B79305000097300000E780A07963
:10226000E345A0F2930C00000DB7930500009730F2
:102270000000E7804078E357A0FEB707000883A579
:10228000472F668597300000E780E076E35FA0EE99
:10229000B707000883AC472FCDBD23206700850614
:1022A00052931107E3CB86FE03574900C697C295A8
:1022B000018F330747030505BA97F1B66393090009
:1022C000D28BB3879B023EC863970904BEC25ED817
:1022D00093172400BEC0B707000883A7472F330A0F
:1022E000504156D602D0BEC69247025783D7270028
:1022F0006348F702014EBA502A549A540A59FA49CF
:102300006A4ADA4A4A4BBA4B2A4C9A4C0A4DF65D55
:1023100072854D618280B3879C0266D8BEC24DBF74
:1023200032579357FA4102D2F98F3EDA9E475256FE
:102330003ED4B30AF040D2573307F402B707002067
:1023400093874746BA970647BECAB70700203307A8
:10235000C7029386074093870740BECCB71700207B
:10236000938747D6BEC43697BAC89247125783D7C9
:102370004700634CF7008257725785073ED0F257EB
:102380003E9AB257998F3ED685B78356490013D7E8
:10239000FA019357FA01338B4603BA9772470356F3
:1023A000290052973327E600BA973307540133A721
:1023B000E600BA9703576900569B3307EB02032BDD
:1023C00089003A9BADE3B7070020138647465A873A
:1023D0008147C25663C7D7044247A5476308F70C35
:1023E000B7070020624DA64DD24C814B138C474657
:1023F00045AC664593952600AA958C41BA95038510
:102400000500B305D60085062380A500E3C396FE2C
:1024100085073E876384090033C737035A9726969A
:102420004DBF8146E5B7A25793DBFA41330C4641D5
:10243000B3FBFB00F24763D387013E8CB38C56415C
:1024400063539401A28C1646EE45B707002013850E
:10245000474697400000E7804008D646DA870146A5
:102460004257E35BE6F6B688464852551DA01397DF
:102470002500429718433E97030307003387B800AF
:10248000850523006700E3C495FF06470505A2986C
:102490003A98634B85010506B28763840900B34708
:1024A0003603DA97A6966DBFDE85F1BFE38A09F29F
:1024B000D24DE24B264C224BB7070020938C474667
:1024C000924783D66700A247B307FB4063CCD7008F
:1024D000925762575AC485073ED2A257BA9A998F2B
:1024E0003ED461B583860D0083870C0003861D00F2
:1024F00003855C00B387D70283861C00B386C602BF
:1025000003862D00B69783862C00B386C602038609
:102510003D00B69783863C00B386C60203864D0015
:10252000B69783864C00B386C602B69783865D0055
:102530003305D50283866D00AA9703856C003305A9
:10254000D50283867D00AA9703857C003305D502DA
:1025500083868D00AA9703858C003305D502AA9740
:1025600003A50B003E9597400000E780E0AA832575
:102570000C0097300000E780804FEA5705472A8D0E
:102580006384E7040D47638CE7043245EA85050B55
:1025900097300000E780A04DAACE0E55A69CA50D51
:1025A00097400000E78040A7F647AA85910B3E853B
:1025B00097300000E780A0ED97400000E780C09FC3
:1025C000A30FABFE110CEDBD93050000973000008A
:1025D000E7806042E34BA0FA130D00007DB793053E
:1025E000000097300000E7800041E357A0FEB707E6
:1025F000000883A5472F6A8597300000E780A03F39
:10260000E355A0F8B707000803AD472FBDBFC24789
:102610009D45668713F687FF8146E287B38585412E
:102620003385F5006367C508C247636FF60E03255F
:102630000D00369597400000E780009E83A50D00B1
:1026400097300000E780A042EA5705472A8B638A4B
:10265000E70E0D476382E71063830900269CA247BB
:102660003245DA85DE97BECE97300000E780204005
:102670002A8B0E55850B110D97400000E780C099FD
:10268000AA855A8597300000E78060E097400000F7
:10269000E7808092F647910D2380A700C247BE9C39
:1026A000A247338B7701924783D76700E3C1FBF6DC
:1026B00005B503080700038507002107A1073305B7
:1026C0000503030897FF3695838697FFB3860603B5
:1026D0000308A7FFAA960385A7FF33050503030890
:1026E000B7FF36958386B7FFB38606030308C7FF97
:1026F000AA960385C7FF330505030308D7FF369560
:102700008386D7FFB38606030308E7FFAA960385EF
:10271000E7FF330505030308F7FF36958386F7FFC8
:10272000B3860603AA96EDBDB307CC003387CC0071
:1027300083870700030707000506B387E702BE96F5
:10274000E5B59305000097300000E780C02AE34517
:10275000A0F0130B000009B79305000097300000AC
:10276000E7806029E357A0FEB6455A859730000000
:10277000E7806028E352A0EE364BF9BD1D4EA5BEA2
:10278000797122D426D24AD04ECE52CC56CA5EC6D9
:1027900006D65AC862C4AA84AE8B3289B68ABA8970
:1027A0003E8A014497400000E780E0BD03D66B00FD
:1027B000634FC400B250225492540259F249624A03
:1027C000D24A424BB24B224C01454561828083D6AE
:1027D00044009C4403D724003383C602A29781455A
:1027E000014563C7E50603AB8B00229B0504330755
:1027F000D7023345E5023305554197400000E78095
:10280000A081CA8597300000E7806026CE8597308A
:102810000000E780E0F82A8C528597300000E780BE
:10282000A07FAA85628597300000E78040C6973078
:102830000000E78060782300AB008DBF038E0800A6
:102840000508B2987295E34BD8FE9A97850551BF5B
:10285000BE880148CDBF397126DAAA8422DC4AD865
:102860004ED652D456D25AD05ECE62CC66CA06DE5E
:102870006AC86EC6AE8B3289368BBA893E8AC68AE2
:1028800097400000E78020B003AC84009D4C0144D9
:10289000B38C8C4183D76B006342F402F2506254D4
:1028A000D2544259B259225A925A025BF24B624CAC
:1028B000D24C424DB24D01452161828003D6640065
:1028C000E2878145B3068602137886FFCA9636876B
:1028D0003385FC0063640507636DC80C93172400FF
:1028E000DA97884303AD8B002E9597300000E78080
:1028F000A072D28597300000E780601783A5090099
:10290000229D050497300000E7806016D685973039
:102910000000E780E0E8AA8D064597300000E780D8
:10292000A06FAA856E8597300000E78040B697308B
:102930000000E78060682300AD00A9BF830807009E
:10294000038507002107A10733051503830897FFB7
:102950002E95838597FFB38515038308A7FFAA9556
:102960000385A7FF330515038308B7FF2E958385DD
:10297000B7FFB38515038308C7FFAA950385C7FF73
:10298000330515038308D7FF2E958385D7FFB385BD
:1029900015038308E7FFAA950385E7FF33051503B1
:1029A0008308F7FF2E958385F7FFB3851503AA9556
:1029B00005B7B3070C0133870601838707000307B8
:1029C00007000508B387E702BE9539B7397122DCE5
:1029D00026DA4ED6AA8452D456D25AD05ECE62CCD3
:1029E00066CA6AC86EC6AE8ABE8C06DE4AD8328B0C
:1029F000B68B3A8C97400000E780E098B707000854
:102A000083AD840083A98A0003DA640003ADC72F75
:102A1000014463454405B707000803AB073083ABA7
:102A200047304E84014A1309000083D76400634590
:102A3000FA06014483D76400634EF40AF2506254EC
:102A4000D2544259B259225A925A025BF24B624C0A
:102A5000D24C424DB24D014521618280B3878D0039
:102A6000038507003305754197300000E780C05AA1
:102A7000DA8597300000E78080FF93172400CE9717
:102A800088C3EA852A8997300000E780C0F663533F
:102A9000A0004A8D0504B5BF0840EA85050A9730B5
:102AA0000000E780401F08C097300000E780E06C1E
:102AB00097100000E780609097300000E780C075B5
:102AC000AA85AA8D4A8597300000E780409C2A8914
:102AD0006E8597300000E780406A5A86DE86972030
:102AE0000000E780002897300000E780E07208C00F
:102AF000110425BF93172400CE978843CA8503AAE3
:102B00008A0097300000E780A0C9E2859730000076
:102B1000E78000C92A8B668597300000E780C04FA8
:102B2000AA855A8597300000E7806096229A9730F0
:102B30000000E78060482300AA000504E5BD0145C8
:102B400082801D71D2C43E8A9C45A2CC03542500CC
:102B50003ECC835745006AD8032D85003304F40228
:102B600083576500528586CEA6CACAC8CEC63689A6
:102B7000BA89D6C23304F402C28ADAC05EDE62DCED
:102B80006ED6468C832D860066DA97300000E7808B
:102B9000C05E2AC84A852ECA97300000E780E05DF3
:102BA0004248D2482A863705000856C04E87AE866E
:102BB0001305052D97400000E780C0AE624B937768
:102BC000C4FFEA84EE8BEA976396F4029374C4FF21
:102BD00063C6841CF6406644D6444649B649264A34
:102BE000964A064BF25B625CD25C425DB25D014587
:102BF0002561828006553ECE910497300000E78023
:102C0000A041AA8C0385C4FF110B910B33053541FC
:102C100097300000E7804040CA8597300000E78089
:102C200000E52AC80305CBFF330555419730000066
:102C3000E780803ED28597300000E78040E342473E
:102C4000AA853A8597300000E7806084E285973056
:102C50000000E780E0B4E68597300000E78020833D
:102C600097300000E7804035238EABFE0385D4FF0C
:102C70003305354197300000E780003ACA85973028
:102C80000000E780C0DE2AC80305DBFF330555419D
:102C900097300000E7804038D28597300000E78009
:102CA00000DD4247AA853A8597200000E780207E14
:102CB000E28597300000E780A0AEE685972000000F
:102CC000E780E07C97300000E780002FA38EABFE0A
:102CD0000385E4FF3305354197300000E780C033BA
:102CE000CA8597300000E78080D82AC80305EBFF2B
:102CF0003305554197300000E7800032D285973088
:102D00000000E780C0D64247AA853A859720000098
:102D1000E780E077E28597300000E78060A8E685ED
:102D200097200000E780A07697300000E780C02859
:102D3000238FABFE0385F4FF330535419730000048
:102D4000E780802DCA8597300000E78040D22AC8EE
:102D50000305FBFF3305554197300000E780C02B8A
:102D6000D28597300000E78080D04247AA853A8517
:102D700097200000E780A071E28597300000E7808F
:102D800020A2E68597200000E78060709730000061
:102D9000E7808022A38FABFEF2473DB5B3079D00CD
:102DA00003850700338B9D003305354197300000C4
:102DB000E7808026CA8597300000E78040CBE24755
:102DC000AA8BA697038507008504330555419730E4
:102DD0000000E7806024D28597300000E78020C99A
:102DE000AA855E8597200000E780606AE2859730BB
:102DF0000000E780E09AAA8B065597300000E78034
:102E0000A021AA855E8597200000E7804068973062
:102E10000000E780601A2300AB005DBB75714AC1FA
:102E20002A89370500081305053B06C722C5D2DCF1
:102E3000D6DADAD8DED6E2D4E6D2EAD026C3CEDEBF
:102E400097400000E780C0A683454900B707000807
:102E50009387073213972500BA97904337050008E8
:102E60001305054097400000E780C0838345590063
:102E7000370500081305454197400000E780808230
:102E80008356A90003568900835569003705000859
:102E90001305454297400000E780C0800357A90111
:102EA0008356890103566901835549013705000896
:102EB0001305054597300000E780C07E03572902BF
:102EC000835609020356E9018355C90137050008F5
:102ED0001305C54697300000E780C07C0326090132
:102EE0008325C900370500081305C5489730000041
:102EF000E780407B370500081305054B974000002D
:102F0000E780009B370500081305C54E9740000079
:102F1000E780009A83556901035689018356A90108
:102F2000370500083387C50213058552B70B000823
:102F3000B70C0008370D000813040904014B014CBD
:102F4000014AB70A00083307D702938BCB77938CDB
:102F50008C30130D8D7997300000E780A074835773
:102F6000A9006342FB0A832709010325C90037042E
:102F700000083E9597200000E780004C0326043AA5
:102F80008326443A97200000E780E098AAC462852F
:102F9000AEC697200000E7802043B707000803A6CD
:102FA000873A83A6C73A97100000E780E02DAAC0B1
:102FB0005285AEC297200000E78000410326043A04
:102FC0008326443A97200000E780E0942648B648DC
:102FD000064796472A8637050008AE86130505740E
:102FE00097300000E780006C0145BA402A449A44BB
:102FF0000A49F659665AD65A465BB65B265C965C19
:10300000065D496182809305700413858A55973067
:103010000000E780206937050008B3052441130547
:10302000455697300000E780E0679305C00413859C
:103030008A5597300000E780E0664C54835824019D
:10304000035804015C44184454400356240083543C
:1030500004002ED80854C6CEC2CCBECABAC8B6C464
:10306000B2C097300000E78040112AD42ED64C50D1
:103070002ED0085097300000E78020102ACC2ECEAA
:103080008355E401D64746472ECA8355C401F64806
:1030900066482EC88355A401A646370500082EC6EB
:1030A00083558401130545572EC4835564012EC2F0
:1030B000835544012EC00646A68597300000E78060
:1030C000605E03570400994763E5E71C8357C4011A
:1030D0008359A4018354E401B389F9025C403E9A08
:1030E00093172700B386FB009442330ADA409546D3
:1030F000B389990263EDE618E6979C43828783447F
:1031000004038347140393058005B38434031385B4
:103110008A55B384F40283576401B384F402973070
:103120000000E78020587C443705000813054560FF
:103130003ECE3C443ECC7C403ECA5C5C3EC88347AD
:10314000B4033EC68347A4033EC4834794033EC2F0
:10315000834784033EC08358640303485403834772
:10316000440303473403834624030346140383457F
:10317000040397300000E780E05299A08357440190
:1031800083542401B384F40283576401B384F402AA
:1031900005A8835764019305100613858A55B384E7
:1031A000970297300000E780E04F145C50580C58AD
:1031B000370500081305C56797300000E780804E8B
:1031C000835704004EC258408A073306FD00DE973D
:1031D0009C43104237050008B307F7403EC08357B1
:1031E000E4018328C400032884000357C4018356E4
:1031F000A401DA851305857197300000E780804AC5
:1032000037050008A6851305C52E97300000E78016
:1032100060495C40269C050B3E9491B39947BDB72D
:1032200083440403834714039305C006B384340323
:1032300013858A55B384F40297300000E7808046F6
:103240007C44370500081305056A3ECE3C443ECC5D
:103250007C403ECA5C5C3EC88347B4033EC683479D
:10326000A4033EC4834794033EC2834784033EC005
:1032700083586403034854038347440303473403D8
:10328000834624030346140383450403DDB58144C8
:1032900005BF154599BB0145828000000000000074
:1032A000000000000000000000000000000000001E
:1032B000000000000000000000000000000000000E
:1032C0005D7106C012C216C41AC61EC82ACA2ECC08
:1032D00032CE36D03AD23ED442D646D872DA76DCF6
:1032E0007ADEFEC0F322103496C0F322003096C27C
:1032F000F322407C96C4732520348A8597E0FFFF33
:10330000E780406786427390123496427390023091
:10331000A6427390427C82401242A2423243C24390
:103320005245E245724682561257A2573258C25849
:10333000525EE25E725F864F616173002030000072
:10334000000000005D7106C012C216C41AC61EC875
:103350002ACA2ECC32CE36D03AD23ED442D646D825
:1033600072DA76DC7ADEFEC073D0E87E7350F97EC6
:1033700073D0B97EF390D07E73700430B6427390F0
:10338000427CA6427390123496427390223482405B
:103390001242A2423243C2435245E245724682562D
:1033A0001257A2573258C258525EE25E725F864F81
:1033B000616173002030011122CC26CA4AC84EC672
:1033C00006CE2A84AE8497000000E780800A97D753
:1033D000FF17938727029843FD572A89AE89630513
:1033E000F7042285A68597000000E78080530DCD65
:1033F00097D7FF17938707F99043D4432285A68573
:1034000097100000E780A03C6343A00497D7FF1704
:103410009387C7F79043D4432285A6859710000071
:10342000E7802045634B0500F24062444A85CE8523
:10343000D2444249B2490561828097300000E7805A
:10344000A0F7930720021CC101498149F1BF9730C1
:103450000000E78060F6930720021CC197D7FF1792
:103460009387C7F103A9070083A9470075BF797146
:10347000939715003737864022D426D24AD006D6F5
:103480004ECE52CC56CA5AC85EC662C46AC26EC01C
:103490008583130717E42E84AA8413D9F501637377
:1034A000F7023707F07F63ECE7149396C500B1820B
:1034B000C98E6396064081470147631D0938AA8774
:1034C0002E8749AE3737D63F130727E4636EF71EC2
:1034D0003707303E17DAFF17130A4AF063ECE73874
:1034E0002686A2862685A28597100000E780A04246
:1034F00097D7FF17938707EC9043D4432A89AE8967
:1035000097100000E780204197D7FF17938707EBBC
:103510009043D44397200000E780A0844A86CE865B
:1035200097100000E780203F97D7FF17938787E920
:103530009043D44397000000E78060754A86CE86AA
:1035400097100000E780203D97D7FF17938707E883
:103550009043D44397200000E780A0804A86CE861F
:1035600097100000E780203B97D7FF17938787E6E7
:103570009043D44397000000E78060714A86CE866E
:1035800097100000E78020392A86AE862685A2851E
:1035900097100000E780E07C2A89AE894A86CE86B3
:1035A0002685A28597100000E780E03697D7FF17A1
:1035B000938747E39043D4432A8BAE8B4A85CE85CD
:1035C00097100000E780E0792A86AE865A85DE856E
:1035D00097100000E78040CB2686A2869710000057
:1035E000E78020782A86AE8603250A0083254A00D4
:1035F00097100000E780E076AA872E87A1AC97D7C6
:10360000FF17938727D89043D44397100000E78093
:10361000001C634FA02A97D7FF17938727D79043A3
:10362000D4432685A28597100000E7808024814737
:1036300001476341052297D7FF17938727D6904309
:10364000D443131C3900268517E9FFFF130989B8F5
:10365000A2854A9C97100000E780E02B03260C020D
:1036600083264C0297000000E780606297200000EC
:10367000E78040CF2A8C97200000E780E0D497D7DE
:10368000FF17938727D29043D4432A89AE89971096
:103690000000E78040282A86AE862685A2859710FE
:1036A0000000E780006C97D7FF17938727D09043DF
:1036B000D4432A8AAE8A4A85CE8597100000E780D7
:1036C00080252A8BAE8B3DA837A7F03F1307172B19
:1036D000E363F7F69317390017E4FFFF130484AF91
:1036E0003E9410405440054C330C2C419710000080
:1036F000E7802067032B0401832B44012A8AAE8ACA
:10370000330C2C415A86DE865285D68597100000F0
:10371000E78020652A86AE86AA842E849710000052
:10372000E780601F97D7FF179387C7C89043D4439C
:103730002A89AE8997100000E780E01D97D7FF1710
:103740009387C7C79043D44397100000E780606118
:103750004A86CE8697100000E780E01B97D7FF17B8
:10376000938747C69043D44397000000E7802052D8
:103770004A86CE8697100000E780E01997D7FF179A
:103780009387C7C49043D44397100000E780605DDF
:103790004A86CE8697100000E780E01797D7FF177C
:1037A000938747C39043D44397000000E780204E9F
:1037B0004A86CE8697100000E780E0152A86AE86FE
:1037C0002685A28597100000E780A0592A86AE863C
:1037D0002A89AE892685A28597100000E780A0136C
:1037E0002A8DAE8D63080C1297D7FF17938787BF7A
:1037F0008843CC434A86CE8697100000E780605607
:103800002A86AE866A85EE8597100000E780C0A7FD
:103810002A86AE865A85DE8597100000E7806054C0
:103820005286D68697100000E780A05397D7FF17DF
:103830009387C7BA2A86AE868843CC439710000088
:10384000E7802052930730C06343FC0A520C3307D1
:10385000BC00AA87B250225492540259F249624ADB
:10386000D24A424BB24B224C124D824D3E85BA8514
:103870004561828097D7FF179387C7B19043D443A0
:1038800017DAFF17130A8AB597000000E780204077
:1038900003290A0083294A004A86CE869710000031
:1038A000E780E0F2E35EA0C22685A2854A86CE8646
:1038B00097000000E780A03DAA872E8761BF2A8677
:1038C000AE8697000000E780803CAA872E8759B714
:1038D00097D7FF17938707AC9043D4433285B685BB
:1038E00097100000E7802003AA872E87A5B79306CC
:1038F0008C3E17D7FF17130767AFD206B695104354
:103900005443AA873E8597100000E780C000AA872D
:103910002E8789B717DAFF17130A4AAC41B186051B
:103920008581370510802E957D818280AE87328813
:1039300036872A836396062097E8FFFF9388889B43
:1039400063FEC50A41676374E60A1307F00F333755
:10395000C7000E07B356E600B69883C60800369730
:1039600093060002998E99CAB397D7003357E500A2
:103970003318D600B365F7003313D500135508018B
:1039800033F7A50213160801418293560301B3D5FC
:10399000A5024207D98EB307B6022E8763FCF60054
:1039A000C2961387F5FF63E7060163F5F6001387F8
:1039B000E5FFC2969D8EB3F7A6024203135303019F
:1039C000B3D6A602C20733E36700B305D602368535
:1039D000637BB30042931385F6FF63660301637450
:1039E000B3001385E6FF4207498F81454DA8B7060E
:1039F00000014147E360D6F66147A9BF01E685466D
:103A000033D8C602C166637ED8089306F00F63F30D
:103A100006012147B356E800B69883C60800BA9657
:103A200013070002158F49E7B387074185451356F1
:103A300008019318080193D808019356030133F73E
:103A4000C702B3D7C7024207D98E3385F8023E8733
:103A500063FCA600C2961387F7FF63E7060163F5D0
:103A6000A6001387E7FFC296898EB3F7C60242030A
:103A700013530301B3D6C602C20733E36700B3880A
:103A8000D8023685637B130142931385F6FF636684
:103A90000301637413011385E6FF4207498F3A85DA
:103AA0008280B70600014147E366D8F661479DB7BB
:103AB0003318E800B3D5D7003313E500B356D5006B
:103AC00013550801B397E70033F7A502B3E8F600F2
:103AD00093170801C18313D60801B3D5A502420785
:103AE000518FB386B7022E86637CD7004297138628
:103AF000F5FF636707016375D7001386E5FF4297FB
:103B0000B306D74033F7A602C20893D80801B3D64C
:103B1000A6024207B385D702B3671701368763FC55
:103B2000B700C2971387F6FF63E7070163F5B70095
:103B30001387E6FFC2978D8F93150601D98DC5BDFA
:103B400063E2D514416763FEE6021308F00F3337D2
:103B5000D8000E0733D8E60097D5FFFF9385857907
:103B6000C29503C80500930500023A98B385054144
:103B700085E10547E3E5F6F23335C5001347150047
:103B800039BFB70500014147E3E6B6FC6147D9B745
:103B900033570601B396B600D98E93DE060133D7AC
:103BA0000701B378D703B397B700335805013363E0
:103BB000F80093970601C183135803013316B6002A
:103BC0003357D703C20833E80801338FE7023A8E30
:103BD000637CE8013698130EF7FF6367D8006375BE
:103BE000E801130EE7FF36983308E841B378D803AD
:103BF0003358D803C208B38E070393170301C18358
:103C0000B3E7F800428763FCD701B6971307F8FFC4
:103C100063E7D70063F5D7011307E8FFB697420EB5
:103C2000B387D741C16E3367EE001388FEFF33734D
:103C3000070193580701337806014182330E0303CD
:103C40003388080393560E013303C30242939A96B6
:103C5000B388C80263F30601F69813D60601B2983A
:103C600063E01703E39317D9C167FD17FD8EC20602
:103C7000337EFE003315B500F2968145E371D5E23F
:103C80007D17A5B38145014719BD370810007D1880
:103C9000B378B8008E089357D501011113D74501A9
:103CA0003378D800B3E7170193D846010E0826CA27
:103CB0004AC89374F77F93F8F87F1357D60106CE5E
:103CC00022CC4EC613D9F501FD82336707010E05DC
:103CD0000E06338814416316D9226351000F63988E
:103CE0000802B366C700638B06569305F8FF89E99F
:103CF0002A963335A600BA97AA9732858544B1A88B
:103D00009306F07F631DD8009304F07F79AA930691
:103D1000F07F638CD418B7068000558FC285930658
:103D2000800363C9B608FD4663C0B60613080002E7
:103D30003308B840B3160701B358B600331606016E
:103D4000B3E616013336C000558E3357B7002A96B6
:103D50003E97B337A600BA9732851397870063560C
:103D6000071485041307F07F6389E448B70680FFD2
:103D7000FD16FD8E9355150005899397F6014D8D1F
:103D80005D8D93D7160015A2938605FE9308000259
:103D9000B356D70001486388150113080004B30522
:103DA000B8403318B7003366C8003336C000558EAC
:103DB000014771BF598E3336C000DDBF630B080A5F
:103DC000B38598408DE4B3E6A700638F06409386E1
:103DD000F5FF99E63295BA973336C500B29739BFE9
:103DE0001308F07F639D0501BA87328531BF9306C2
:103DF000F07FE38BD8FEB7068000D58FAE869305A3
:103E0000800363C4D506FD4563CBD50213080002C9
:103E10003308D8403353D500B39507013315050156
:103E2000B3E565003335A0004D8DB3D6D70032958C
:103E3000B387E6003336C500B297C68439BF938591
:103E400006FE13030002B3D5B7000148638866007D
:103E500013080004B306D8403398D7003365A80090
:103E60003335A0004D8D8146D9B75D8D3335A00027
:103E7000DDBF9386140093F5E67FBDE1B3E6A700AE
:103E8000A9E463870636B366C70085C22A96BA9747
:103E90003335A600AA97139787003285635707002A
:103EA000370780FF7D17F98F854413777500630806
:103EB00007341377F50091466303D7349306450022
:103EC00033B5A600AA9736851DAE99DE598EE30D4F
:103ED00006E20149B707400001459304F07F05A6BB
:103EE0009305F07F6389B6302A963E97B337A600D4
:103EF0003E971315F7010582518D93571700B6842D
:103F00006DB76356000D63910808B366C7006387F9
:103F100006349305F8FF91E93306C5403335C500F3
:103F2000998F898F32858544B1A09306F07FE30D88
:103F3000D8DC9306800363C8B608FD4663CFB60499
:103F4000130800023308B840B3160701B358B6008F
:103F500033160601B3E616013336C000558E3357CB
:103F6000B7003306C5403387E740B337C500B30712
:103F7000F740328513978700E35907F23704800032
:103F80007D147D8CAA8975A29306F07FE38FD4F00F
:103F9000B7068000558FC28569BF938605FE9308DA
:103FA0000002B356D70001486388150113080004C6
:103FB000B305B8403318B7003366C8003336C000C5
:103FC000558E014779BF598E3336C000DDBF63047B
:103FD000080C3388984095E8B3E5A700638205286C
:103FE0009305F8FF91E93305A640B307F740333650
:103FF000A600918F368905BF1303F07F631F680009
:10400000BA8732859304F07F7DA09305F07FE38922
:10401000B8FEB7058000CD8FC285130880036348C2
:10402000B8067D48634EB802130300023303B34061
:10403000335EB50033986700331565003368C801F7
:104040003335A0003365A800B3D5B7003305A640CB
:10405000B307B7403336A600918FC684368919BF9F
:10406000138805FE130E000233D80701014363884D
:10407000C50113030004B305B3403393B7003365A0
:10408000A3003335A0003365A8008145C1B75D8D1D
:104090003335A000DDBF9385140093F5E57FB5E5CA
:1040A00033E8A700B365C700B1E463180800638D67
:1040B000051ABA8732853689CDBBE38805DE330819
:1040C000C540B385E740B3380501B3851541139466
:1040D0008500635A04003305A640B307F740333622
:1040E000A600918FC9BF3365B80063030518AE877A
:1040F000428565BB63180800638E0516BA87328552
:10410000368919B1E38205C0E9B3B309C540B335B7
:1041100035013384E7400D8C9315840063D905067F
:10412000B309A640B307F740333636013384C7409E
:10413000368925C4228597200000E78000201307D8
:1041400085FFFD4763C3E70693070002998F331489
:10415000E400B3D7F9005D8C3395E900634097081C
:10416000058F93071700FD4663C7F6041307000287
:104170001D8F3356F500B316E4003315E500D18EDC
:104180003335A000558DB357F400814439BB33E576
:10419000890045F181478144D1A84E8597200000D0
:1041A000E780A0191305050259BF130485FD339458
:1041B0008900014565B70517130600023357E4006F
:1041C00081466387C700930600049D8EB316D40012
:1041D000558D3335A000598D814745BFB70780FF06
:1041E000FD17998CE18FD1B1BA873285AE8475B94C
:1041F000BA8732855DB99304F07F814701451397F3
:104200008700635B070085041307F07F6389E4067A
:10421000370780FF7D17F98F1397D7010D81598DCF
:104220001307F07F8D836399E4005D8D814709C595
:10423000B70708000145014913F7F47FB207520799
:10424000F2406244B1839315F901D98F33E7B70087
:10425000D2444249B249BA8505618280C284B1B173
:10426000BA873285C28481BD81470145014941BF7A
:104270008147EDBF01450149B7074000B9B9814702
:10428000014559BF797113D8450126D24ECE52CC83
:104290005AC85EC69394C50006D622D44AD056CAE0
:1042A0001378F87F2A8BB28B368AB18093D9F501C7
:1042B000630408089307F07F630EF80C935AD50146
:1042C0008E04B3E49A00B70A8000B3EA54011314D1
:1042D0003500130918C0014B13554A019314CA0045
:1042E0001378F57FB180135AFA016308080C93071D
:1042F000F07F6301F8121395340093D7DB015D8DD5
:10430000B7048000C98C139F3B00130518C0814778
:1043100013172B005D8F7D17B94633C6490133084B
:10432000A94063EBE61097D6FFFF9386A6ED0A0738
:104330003697184336970287B3EAA40063860A06C5
:104340008DCC268597200000E78020FF930755FF3E
:104350007147634BF702F54A130485FFB38AFA40AD
:10436000B3948400B35A5B01B3EA9A0033148B0010
:104370001308D0C03309A840B9BF97200000E780D8
:10438000C0FB13050502D9B7930485FDB31A9B0042
:104390000144F9BFB3EAA400638C0A002A84A68A08
:1043A0001309F07F0D4B0DBF01440149054B2DB79B
:1043B00001441309F07F094B05B733EF740163041F
:1043C0000F069DC8268597200000E78000F7930719
:1043D00055FF7147634AF7027547130F85FF1D8F1D
:1043E000B394E40133D7EB00D98C339FEB01130670
:1043F000D0C03305A64021BF5E8597200000E7802E
:10440000C0F313050502E1B7930485FDB3949B0047
:10441000014FF1BF33EF7401630B0F005E8F130583
:10442000F07F8D47F5B5814401458547D5B5814479
:104430001305F07F8947E9BD63E6540163939A2A27
:104440006361E42B9396FA01135714009317F40158
:1044500093DA1A0033E4E6001395840093548F0135
:10446000458D135E0501B3D8CA0313130501135319
:1044700003011357040193158F00B3F4CA03C68FC9
:10448000B3061303939A040133675701637CD70083
:104490002A97938FF8FF6367A7006375D700938F00
:1044A000E8FF2A97158FB35EC70342044180337734
:1044B000C703F686B308D3034207418F637C170115
:1044C0002A979386FEFF6367A7006375170193869B
:1044D000EEFF2A97C20FB3EFDF00C1663304174126
:1044E0009388F6FF13DF0F0133F71F0193DE0501F9
:1044F000B3F81501B3031703B3041F033387EE02A8
:10450000B302DF03330F970013D703017A97637366
:104510009700B692135F0701169FC162FD12B37632
:104520005700C206B3F353009E966367E401FE840E
:10453000631EE40363FCD702AE9733B7B7002A9734
:104540003A949384FFFF636685006311850263EFED
:10455000B7006366E401631B8F0063F9D700AE9771
:1045600033B7B7002A979384EFFF3A94B386D740C6
:104570003304E441B3B7D7001D8C7D5F6305850E1E
:10458000335FC40313D706013374C403B307E303D3
:104590004204598C7A87637CF4002A941307FFFF46
:1045A0006367A4006375F4001307EFFF2A941D8C62
:1045B000335FC403C206C1823374C403FA87330372
:1045C000E3034204558C637C64002A949307FFFF45
:1045D0006367A400637564009307EFFF2A944207A2
:1045E0005D8F93170701C1833304644013530701A0
:1045F000338E1703B308130333836E02B38EFE02A8
:1046000093570E01C69EF69763F41701C166369361
:1046100093D807019A9841637D13B3F66700C206E9
:10462000337E6E00F29663661401631E14193A8F8E
:104630009DCA2A94130FF7FF6361A40263661401F5
:104640006312141963FDD50093971500B3B5B70035
:104650002E95130FE7FF2A94BE856314140163841B
:10466000B600136F1F001307F83F6357E00A9377F4
:104670007F0081CF9377FF0091466388D700930630
:104680004F0033BFE601FA94368F9397740063D8D6
:104690000700B70700FFFD17FD8C130708409307BD
:1046A000E07F63C8E710135F3F009397D401B3E73F
:1046B000E70113D5340032051377F77F5207B25064
:1046C00022543181598D7E063367C50092540259B8
:1046D000F249624AD24A424BB24B3E85BA854561A5
:1046E00082807D1881478DBB4E86D684228FDA87E3
:1046F00009476380E70C0D476386E70A0547E394A3
:10470000E7F60145814785A85286DDB7B704080062
:10471000014F01468D47E9BF0545198D9307800379
:10472000E3C1A7FEFD4763CAA7041308E841B39796
:1047300004013357AF0033180F01D98F333800010C
:10474000B3E7070133D5A40013F7770001CF13F7C0
:10475000F70091466308D70013874700B337F70087
:104760003E95BA8713178500634A07041317D501CE
:104770008D83D98F0D8101473DBF8557998F930652
:104780000002B3D7F40001476306D5001308E843DD
:1047900033970401336FE701333FE001B3E7E701EB
:1047A00001455DB73705080081471307F07F0146D3
:1047B00019B7014581471307F07FF5BD01458147D2
:1047C0000547D5BD7A873A8F69BD13D84501B7072C
:1047D0001000FD1713D746011378F87F930EF07F72
:1047E000B3F8B7002A83F58FFD81328E1377F77FF8
:1047F000FD826318D801B3EEA80063850E06F95553
:104800000DA86316D701B3EEC700E39A0EFE631D31
:10481000080433E5A8001335150019E35D8E15CEA5
:1048200011E5638AD50085C9FD5521A0FD5591C2CA
:10483000B6852E858280E34807FF6354E800F5F9CA
:10484000E5B7E3E217FF639CF800E36E6EFCE368F4
:10485000C3FF8145F9BF8545E9BF65FDE9B7E3E0E1
:10486000F8FEC5BFE30107FB4DFF014545BF13D867
:104870004501B7071000FD1713D746011378F87FDD
:10488000930EF07FB3F8B7002A83F58FFD81328E47
:104890001377F77FFD826318D801B3EEA800638514
:1048A0000E0689450DA86316D701B3EEC700E39A3B
:1048B0000EFE631D080433E5A8001335150019E347
:1048C0005D8E15CE11E5638AD50085C9FD5521A001
:1048D000FD5591C2B6852E858280E34807FF63545B
:1048E000E800F5F9E5B7E3E217FF639CF800E36E33
:1048F0006EFCE368C3FF8145F9BF8545E9BF65FDEF
:10490000E9B7E3E0F8FEC5BFE30107FB4DFF014552
:1049100045BF79714ECE93D9450122D426D252CCCF
:1049200056CA5AC89394C50006D64AD05EC693F9B3
:10493000F97F2A84328BB68AB18013DAF50163815C
:1049400009089307F07F6389F90C9357D5018E040A
:10495000DD8CB7078000DD8C13193500938919C0F1
:10496000814B13D54A011394CA001375F57F31802A
:1049700093DAFA0161C59307F07F630DF510935741
:10498000DB010E045D8CB70780005D8C130515C03C
:1049900093173B00014793962B00D98E4E95FD1639
:1049A000B94533465A011308150063E6D51097D56B
:1049B000FFFF9385E5888A06AE969442AE9682867E
:1049C00033E9A400630309069DC8268597200000EB
:1049D000E780A096130755FFF14763C9E702F54743
:1049E000130985FF998FB3942401B357F400DD8C2C
:1049F000331924019309D0C0B389A94095B79720F2
:104A00000000E780809313050502E9B7930485FD54
:104A1000B31494000149F9BF33E9A400630B090002
:104A20002A899309F07F8D4B2DBF81448149854BA5
:104A30000DBF81449309F07F894B25B7B3676401AB
:104A4000B5C31DC8228597200000E780008F93061C
:104A500055FFF14763CAD7027547930785FF158F46
:104A60003314F4003357EB00598CB317FB001307D2
:104A7000D0C03305A74039BF5A8597200000E78092
:104A8000C08B13050502E1B7130485FD33148B00B9
:104A90008147F1BFB367640191CBDA871305F07FDB
:104AA0000D47D5BD014401450547F5B50144130542
:104AB000F07F0947CDB5416F930EFFFF13570901F2
:104AC00093D807013379D901B3F7D701B385280308
:104AD000B3862703B30FF7023383F50193D506019D
:104AE0009A95330E170363F3F5017A9E93D305016C
:104AF000B3F5D501B3F6D601135F0401B372D40147
:104B0000C205B695B30E5702B386220333092F03AD
:104B10003303D90113D906011A993307E7036374E4
:104B2000D90141631A97935E0901C169BA9E13873F
:104B3000F9FF3379E900F98E13D404014209F98CA5
:104B4000369933879702CA933303F402B3869802E7
:104B5000B3878802B388660093560701C69663F34D
:104B60006600CE9793D80601C169B38FF80093878A
:104B7000F9FFFD8E7D8FB3889202C206BA96B30705
:104B80005402B3049F0233038F02BE9413D408016E
:104B9000A29463F3F4004E93C167FD1733F7F4005A
:104BA000B3F8F80042071E9E469733392E017697D8
:104BB00033042701369EB336DE00B308F401338F89
:104BC000D8003337D70133342401598CC180B3B8AE
:104BD000F801B336DF002694B3E6D80036941A9471
:104BE00093577F0126045D8C93179E00CD8FB337BA
:104BF000F000135E7E0113179F00B3E7C701D98F42
:104C0000131774006358070A13D71700858BD98FC1
:104C10001317F401D98F05809306F83F635ED0081F
:104C200013F7770001CF13F7F70091456308B7003A
:104C300013874700B337F7003E94BA871317740001
:104C400063580700370700FF7D17798C93060840EB
:104C50001307E07F634CD70E13D737009317D401A7
:104C6000D98F0D80320413F7F67F52073180598CAB
:104C70007E063367C400B250225492540259F2495E
:104C8000624AD24A424BB24B3E85BA854561828028
:104C900052862684CA875E8789466309D70A8D466D
:104CA000630FD7088546E319D7F6014481479DA0D5
:104CB0005686DDB72A888DB78545958D1307800305
:104CC000E345B7FE7D476349B7041308E84133174E
:104CD0000401B3D6B700B3970701558FB337F0007F
:104CE000D98F3354B40013F7770001CF13F7F700CF
:104CF00091466308D70013874700B337F7003E9407
:104D0000BA8713178400634807041317D4018D83EF
:104D1000D98F0D808146B9B70557158F130500024D
:104D20003357E40081466386A5001308E843B316B1
:104D30000401D58FB337F000D98F01446DB7370424
:104D4000080081479306F07F014629BF014481474F
:104D50009306F07F01BF01448147854621B737089C
:104D600010007D18B378B8008E089357D501011153
:104D700013D745013378D800B3E7170193D846011C
:104D800026CA4AC89374F77F13D9F5011357D60181
:104D90000E0806CE22CC4EC693F8F87F9305F07F1E
:104DA0000E05FD82336707010E066395B800B365F3
:104DB000C70099E193C616003388144163932623F4
:104DC000635C000F63950804B366C7008DC2138847
:104DD000F4FF631A08002A963335A600BA97AA97FB
:104DE0003285854495A89306F07F6399D4021377A2
:104DF00075006306074E1377F50091466301D74EA1
:104E00009306450033B5A600AA973685C9A993062F
:104E1000F07FE38ED4FCB7068000558F93068003A5
:104E200063C80609FD4663C0060793050002B38503
:104E30000541B316B700B35806013316B600B3E602
:104E400016013336C000558E335707012A963E9718
:104E5000B337A600BA97328513978700E35907F84E
:104E600085041307F07F638AE446B70680FFFD16CA
:104E7000FD8E9355150005899397F6014D8D5D8D37
:104E800093D71600ADB7930608FE93080002B356F9
:104E9000D700814563081801930500043388054154
:104EA000B31507014D8E3336C000558E014779BFCB
:104EB000598E3336C000DDBF630B080AB3859840B6
:104EC0008DE4B3E6A700638106409386F5FF99E67B
:104ED0003295BA973336C500B29721B71308F07FE1
:104EE000639D0501BA873285E5AC9306F07FE38BBD
:104EF000D8FEB7068000D58FAE869305800363C4C5
:104F0000D506FD4563CBD502130800023308D8400F
:104F10003353D500B395070133150501B3E565009B
:104F20003335A0004D8DB3D6D7003295B387E60058
:104F30003336C500B297C68405B7938506FE1303C2
:104F40000002B3D5B7000148638866001308000467
:104F5000B306D8403398D7003365A8003335A00096
:104F60004D8D8146D9B75D8D3335A000DDBF938669
:104F7000140093F5E67FA9E5B3E6A7009DE46389F5
:104F80000634B366C700E38406E62A96BA9733353B
:104F9000A600AA97139787003285E35A07E43707DC
:104FA00080FF7D17F98F854499B58DDE598E630991
:104FB00006220149B707400001459304F07F05A68A
:104FC0009305F07F6389B6302A963E97B337A600E3
:104FD0003E971315F7010582518D93571700B6843C
:104FE00039B56355000D63920808B366C700E380C6
:104FF00006E01388F4FF631B08003306C540333511
:10500000C500998F898F32858544B1A09306F07FC2
:10501000E38FD4DC9306800363C60609FD4663CEA6
:10502000060593050002B3850541B316B700B358D2
:1050300006013316B600B3E616013336C000558EAE
:10504000335707013306C5403387E740B337C50000
:10505000B307F740328513978700E35A07D8370420
:1050600080007D147D8CAA896DA29306F07FE38079
:10507000D4D8B7068000558F71BF930608FE9308F9
:105080000002B356D7008145630818019305000458
:1050900033880541B31507014D8E3336C000558E58
:1050A00001474DB7598E3336C000DDBF6304080C8D
:1050B0003388984095E8B3E5A700638105289305F8
:1050C000F8FF91E93305A640B307F7403336A60051
:1050D000918F368915BF1303F07F631F6800BA876D
:1050E00032859304F07F7DA09305F07FE389B8FEBD
:1050F000B7058000CD8FC285130880036348B806CA
:105100007D48634EB802130300023303B340335E9D
:10511000B50033986700331565003368C80133352F
:10512000A0003365A800B3D5B7003305A640B30788
:10513000B7403336A600918FC684368929BF1388BD
:1051400005FE130E000233D8070101436388C50131
:1051500013030004B305B3403393B7003365A300D2
:105160003335A0003365A8008145C1B75D8D333567
:10517000A000DDBF9385140093F5E57FBDE533E81E
:10518000A700B365C700B1E463180800638C051A73
:10519000BA8732853689A1B9E38B05C43308C54087
:1051A000B385E740B3380501B385154113948500F5
:1051B000635A04003305A640B307F7403336A60010
:1051C000918FC9BF3365B80063020518AE87428569
:1051D00039B9631A0800638D0516BA873285368996
:1051E0009304F07F29B1EDDDE9B3B309C540B335D0
:1051F00035013384E7400D8C9315840063D905068F
:10520000B309A640B307F740333636013384C740AD
:10521000368925C4228597100000E7800012130705
:1052200085FFFD4763C3E70693070002998F331498
:10523000E400B3D7F9005D8C3395E900634097082B
:10524000058F93071700FD4663C7F6041307000296
:105250001D8F3356F500B316E4003315E500D18EEB
:105260003335A000558DB357F400814449B633E57A
:10527000890045F181478144C1A84E8597100000FF
:10528000E780A00B1305050259BF130485FD339475
:105290008900014565B70517130600023357E4007E
:1052A00081466387C700930600049D8EB316D40021
:1052B000558D3335A000598D814745BFB70780FF15
:1052C000FD17998CE18F25B6BA873285AE8405B675
:1052D000BA87328529BE9304F07F81470145139731
:1052E0008700635B070085041307F07F6387E4068C
:1052F000370780FF7D17F98F1397D7010D81598DDF
:105300001307F07F8D836399E4005D8D814709C5A4
:10531000B70708000145014913F7F47FB2075207A8
:10532000F2406244B1839315F901D98F33E7B70096
:10533000D2444249B249BA8505618280BA87328532
:10534000C28489BD81470145014951BF8147EDBFF5
:1053500001450149B70740008DB18147014569BF4B
:1053600013D74501B70610009387F6FF1377F77F31
:105370001306E03FED8FFD816354E6041306D04130
:105380006358E600370500801345F5FF2E958280AF
:10539000D58F93063043998E7D46634DD600130713
:1053A000D7BEB397E7003355D5005D8D99C9330556
:1053B000A040828013053041198D33D5A700FDB779
:1053C00001458280411106C622C426C22DC19357D1
:1053D000F54133C4A7001D8C9354F5012285971025
:1053E0000000E78080F51307E041A947098F63CAF1
:1053F000A702AD47898F5505B357F4003314A400B5
:105400002685B2071377F77F5207B1837E05D98FC0
:1054100033E7A700B240228522449244BA85410175
:1054200082805515B317A40026850144D9BF0147D2
:105430008147E5BF411122C406C62A8421C59710C1
:105440000000E78080EF1307E041A947098F63C69A
:10545000A702AD47898F5505B357F4003314A40054
:105460002285B2402244B2071377F77F5207B183F7
:10547000B3E6E700B685410182805515B317A40055
:105480000144F9BF81470147E1BF3707800041115F
:105490007D17B377A70026C24AC09354F50113596C
:1054A000750113D575016D8F1379F90F1375F50F0C
:1054B00006C622C4FD818E070E07B306A94063927B
:1054C000B412635AD00621E1630B0726FD168DE660
:1054D000BA974A85139757006359070C05051307B8
:1054E000F00F6304E5263707007E93F617007D175B
:1054F0008583F98FD58F55A81306F00F631CC9005B
:105500001305F00F5DA01306F00FE30BC9FE37067D
:105510000004518F6D466354D600054755BF1306EE
:105520000002B355D700B306D6403317D700333740
:10553000E0004D8F71BFB9C633062541631D0900D8
:1055400089CB7D1619E2BA9771B79306F00F631BEA
:10555000D500BA8799A89306F00FE30CD5FEB706DD
:105560000004D58FED4663D4C6008547E9BF930696
:105570000002918EB3D5C700B397D700B337F000C0
:10558000CD8FD1B79306190013F5E60F39E16319F2
:105590000902E1D319CBBA97139757006357070055
:1055A000370700FC7D17F98F054513F77700630F68
:1055B000071813F7F7009146630AD718910779A2E5
:1055C0006381071815DF8144B70700021305F00F48
:1055D000B5AA1306F00F6388C616BA978583368579
:1055E000E9B76355D0061DE94A8561D3FD1681EE02
:1055F000998F13975700E35A07FA370400047D1474
:105600007D8C2A89C5A81306F00F1305F00FE30E51
:10561000C9F86D46635ED600054735A01306F00F46
:105620001305F00FE303C9F837060004518FD5B70F
:1056300013060002B355D700B306D6403317D70080
:105640003337E0004D8F998F4A8565B7B9CA330665
:1056500025416310090299CB7D1609E6B307F7408F
:10566000AE8441BF9306F00F631CD500BA87AE84A9
:105670002DBF9306F00FE30BD5FEB7060004D58FC0
:10568000ED4663D4C6008547D1BF93060002918ED4
:1056900033D8C700B397D700B337F000B367F8002B
:1056A00075BF130519001375E50F05ED63140902A5
:1056B00089E74DFF8147814451A8E30807EEB3868F
:1056C000E74013965600B307F740E34206FAFDD2CF
:1056D000B687E1BDE39807EEE30707EEBA87AE842D
:1056E00005B53384E7409316540063DF06023304A4
:1056F000F740AE84228597100000E78000C46D1546
:105700003314A4006346250333052541050513071B
:105710000002B357A4003305A7403314A400333468
:105720008000C18F014551B571F48147014561B7D2
:10573000B70700FCFD173305A940E18FBDB54A85C9
:10574000ADB5BA8775BB1305F00F814713975700A6
:10575000635B070005051307F00F630FE5023707CA
:1057600000FC7D17F98F1307F00F8D836316E5009A
:1057700081C7B707400081441375F50FB24022443A
:10578000A6071317750113D59700FE04598D458D93
:1057900002499244410182808147F1B7011126CA32
:1057A000935475014AC84EC652C49319950006CE4B
:1057B00022CC56C293F4F40F2E8A93D99900135930
:1057C000F501B5C49307F00F6382F4088E09B7079B
:1057D0000004B3E9F900938414F8814A13557A015F
:1057E00013149A001375F50F2580135AFA012DC969
:1057F0009307F00F6305F5080E04B70700045D8CEE
:10580000130515F8814793962A00DD8EFD1639475A
:10581000334649013385A440636CD70697C5FFFF23
:105820009385C5A58A06AE9698422E970287638611
:1058300009024E8597100000E78020B09307B5FF5E
:105840009304A0F8B399F900898C41BF9304F00F39
:10585000894AE38509F88D4A51B78144854ABDBF1D
:105860000DC4228597100000E78020AD9307B5FF97
:105870003314F4009307A0F83385A74061B71305EC
:10588000F00F894749D08D47BDBF01458547A5BF6A
:105890001318540063FE890A7D15814613540801CC
:1058A00033D38902C167FD17B377F800C18233F79C
:1058B00089029A85B38867024207558F637C170176
:1058C00042979305F3FF636707016375170193051B
:1058D000E3FF429733071741B358870233778702B4
:1058E000B386170393170701468763FCD700C29757
:1058F0001387F8FF63E7070163F5D7001387E8FF15
:10590000C29713940501958F598CB337F0005D8CC5
:105910001307F507635AE0089377740099C79377E4
:10592000F40091466383D70011049317440063D8B1
:105930000700B70700F8FD177D8C130705089307CC
:10594000E00F0D8063D9E70201441307F00F25A093
:105950009396F90193D9190091B74A864E84D68758
:105960000947E383E7FE0D47638FE7060547E391A9
:10597000E7FA0144014726041377F70F5E072580F5
:10598000598C1315F601418DF2406244D2444249CC
:10599000B249224A924A056182805286D1B73704C1
:1059A000400001468D476DBF8547998F6D47E342A3
:1059B000F7FC1305E509B357F4003314A40033349E
:1059C00080005D8C9377740099C79377F40011473A
:1059D0006383E7001104931754000D80E3DC07F89C
:1059E0000144054749BF370440001307F00F014643
:1059F00059B793567501B7078000FD1713D7750186
:105A000093F6F60F1308F00F33F6A7001377F70F8E
:105A1000ED8F7D81FD816395060139C279558280C4
:105A200063130701E5FF9DEE11E38DCB01CA6314FB
:105A3000B5006359D7000DC17D5582807D5591C554
:105A40002E85828063D4E60065D98280E3E5C7FEB7
:105A5000E36CF6FE014582800545828065DEE1BF8C
:105A6000E302D7FC69F7E1DBD9B701114AC8135942
:105A7000750126CA4EC656C29314950006CE22CC96
:105A800052C41379F90FAE8AA5809359F5016307C3
:105A900009069307F00F6302F9088E04B7070004A4
:105AA000DD8C130919F8014A13D57A0113949A0071
:105AB0001375F50F258093DAFA012DC99307F00FBE
:105AC0006305F5080E04B70700045D8C130515F88F
:105AD000814713172A005D8F4A957D17B945B3C6D4
:105AE00059011306150063EBE50697B5FFFF938593
:105AF000A57C0A072E9718432E9702878DC426850A
